S014000041746D656761385F756172742E737265636E
S113000012C024C023C022C021C020C01FC01EC0F3
S11300101DC01CC01BC01AC019C018C017C016C010
S113002015C014C013C011241FBECFE5D4E0DEBF39
S1130030CDBF10E0A0E6B0E0E2ECF0E002C0059035
S11300400D92A237B107D9F736D039C0D9CF8CE099
S113005089B9599A8AB188618AB90895DC019C9159
S1130060992359F020E05D9BFECF9CB92F5FFD01E1
S1130070E20FF11D90819111F6CF08955F9B1AC094
S11300808CB1803359F4C09880E690E0E7DF83E6D2
S113009090E0E4DF80E690E0E1DF0895813351F4FD
S11300A0C09A80E690E0DADF8BE690E0D7DF80E666
S11300B090E0D4DF0895B89ACADFE0DFFECFF89469
S10500C0FFCF6C
S11300C20A0D004C4544204F4646004C4544204FFF
S10500D24E00DA
S9030000FC
