:100000000C9407020C942F020C942F020C942F02D4
:100010000C942F020C942F020C942F020C942F029C
:100020000C942F020C942F020C942F020C942F028C
:100030000C942F020C942F020C942F020C942F027C
:100040000C9485090C942F020C942F020C942F020F
:100050000C942F020C942F020C942F020C942F025C
:100060000C94CB090C942F020C9400000C9400000B
:100070000C9400000C9400000000000023002600F7
:1000800029002C00320000000000240027002A0074
:100090002D00330000000000250028002B002E005A
:1000A00034000404040404040404020202020202F0
:1000B0000303030303030505020306050502030505
:1000C00005050506060606060606010204081020B8
:1000D00040800102040810200102040810200208D8
:1000E000408001408080400104102002040810205C
:1000F00040800000000850020100000304070000D7
:100100000000000000000000207F0101000000004E
:10011000000000000000005E00000000000006007B
:100120000006000000247E24247E240000246B2A84
:100130002A6B1200004626100864620000344A4A06
:100140005420500000000000060000000000003CA9
:1001500042000000000000423C000000002A1C3E5B
:100160001C2A00000008083E08080000000040307B
:10017000000000000008080808080800000000400F
:10018000000000000040201008040200003C625201
:100190004A463C000040447E404000000064525209
:1001A00052524C000024424A4A4A34000038242269
:1001B000227E2000002E4A4A4A4A3200003C4A4A27
:1001C0004A4A300000020262120A060000344A4A1B
:1001D0004A4A3400000C525252523C0000000024A3
:1001E000000000000000402400000000000008148F
:1001F0002200000000141414141414000000002243
:1002000014080000000402520A0400000018245AD6
:100210005A241800007C121212127C00007E4A4AF6
:100220004A4A3400003C424242422400007E42429C
:1002300042423C00007E4A4A4A424200007E0A0A8C
:100240000A020200003C424252523400007E08087A
:1002500008087E000000427E42000000002040406E
:1002600040403E00007E080808146200007E4040C6
:1002700040404000007E040808047E00007E040820
:1002800010207E00003C424242423C00007E12129E
:1002900012120C00003C425262423C00007E1212DC
:1002A00012324C0000244A4A4A4A30000002027EC0
:1002B00002020000003E404040403E00001E204040
:1002C00040201E00007E201010207E0000422418D6
:1002D0001824420000020478040200000042625226
:1002E0004A46420000007E4242000000000204082C
:1002F0001020400000000042427E00000000000488
:1003000002040000808080808080808000000002E5
:10031000040000000020545454780000007E484837
:100320004830000000384444442800000030484869
:10033000487E000000385454544800000000087CF7
:100340000A0200000018A4A4A47C0000007E080893
:10035000087000000000487A4000000000408080E3
:10036000887A0000007E1010284400000000427EC1
:1003700040000000007C047804780000007C040445
:1003800004780000003844444438000000FC444431
:10039000443800000038444444FC0000007C080459
:1003A0000404000000485454542400000000043E9B
:1003B00044000000003C4040207C0000001C204025
:1003C000201C0000001C601C601C00000044281061
:1003D00028440000001CA0A0A07C0000004464543D
:1003E0004C4400000000083641000000000000FFFF
:1003F0000000000000004136080000000804040866
:10040000101008000000000000000000EA0A11249B
:100410001FBECFEFD8E0DEBFCDBF11E0A0E0B1E05E
:10042000ECE7F9E102C005900D92A039B107D9F7C8
:1004300022E0A0E9B1E001C01D92AE3BB207E1F7B6
:1004400012E0C7E0D2E004C02197FE010E949C0C9C
:10045000C630D107C9F70E94550B0C94BC0C0C9404
:10046000000080E008951F93CF93DF9300D000D069
:100470001F92CDB7DEB71C8221E02B839A8389833C
:10048000E0918802F091890211891D82A091880271
:10049000B0918902E0918C02F0918D029E012F5F54
:1004A0003F4F50964C916FE088E892E009958D811E
:1004B0008F5F8D83811750F30F900F900F900F90E7
:1004C0000F90DF91CF911F9108959B01DC01189649
:1004D000ED91FC9141E067E1099481508B3088F502
:1004E000E82FF0E0EA58FD4F0C949C0C8B028F0231
:1004F00081028702A102A102920298029C02A2023A
:10050000A602809180008F7780938000089580916B
:1005100080008F7DF9CF84B58F7784BD089584B531
:100520008F7DFBCF8091B0008F778093B0000895CE
:100530008091B0008F7DF9CF809190008F7780936C
:1005400090000895809190008F7DF9CF8091900068
:10055000877FF5CF1F93CF93DF93282F30E0F901EA
:10056000EE50FF4F8491F901E653FF4FD491F9010A
:10057000EE55FF4FC491CC23A9F0162F81110E9494
:100580006D02EC2FF0E0EE0FFF1FEC56FF4FA59130
:10059000B4918FB7F894EC91111108C0D095DE2377
:1005A000DC938FBFDF91CF911F910895DE2BF8CFA1
:1005B000CF93DF93282F30E0F901E653FF4F4491AA
:1005C0002E553F4FF9012491843019F583E0809333
:1005D000A0002223D9F0822F90E0880F991FFC0100
:1005E000EA57FF4FA591B491FC01EC56FF4FC5911E
:1005F000D491623019F59FB7F8942C91842F80958F
:1006000082238C93E8814E2B48839FBFDF91CF914B
:10061000089593EE980F923020F48FEF84BF84BF3B
:10062000D8CF8931B1F68091F00082608EBB80E82E
:100630008093F0008EB38093F000CBCF8FB7F89407
:10064000EC914E2B4C938FBFE1CF3FB7F894809144
:10065000740290917502A0917602B091770226B54E
:10066000A89B05C02F3F19F00196A11DB11D3FBFEA
:10067000BA2FA92F982F8827BC01CD01620F711DB9
:10068000811D911D660F771F881F991F089566238E
:1006900029F06A3019F0862F90E008958FEF9FEFD0
:1006A000089520912302260F3327331F213231056D
:1006B000ECF420914902FC0190E080E0243069F0E4
:1006C00082E00895A09123022191AC014F5F5D4F1C
:1006D000A40FB52FB11D2C930196861798F3809126
:1006E0002302680F6093230280E0089581E008955B
:1006F0001092490281E080934B0210924A0261E01D
:1007000082E10E94AA0261E083E10E94AA02E9EB71
:10071000F0E080818E7F808380818D7F808388E977
:100720008093B80085E48093BC000895CF93DF9355
:1007300091E0909300028823B9F0C091B800D09165
:10074000BA008091BC008A7B8093BC0060E082E1AB
:100750000E94AA0260E083E10E94AA020E9478033C
:10076000D093BA00C093B800DF91CF910895089557
:1007700008950895E091F8018091F701E81730F4A9
:10078000F0E0E952FE4F808190E008958FEF9FEFF7
:1007900008959091F8018091F7012FEF3FEF98179E
:1007A00048F4E92FF0E0E952FE4F208130E09F5FEE
:1007B0009093F801C90108958091F7019091F80193
:1007C000891B990B0895CF92DF92EF92FF920F93BE
:1007D0001F93CF93DF937C01CB018A012091D60137
:1007E000222389F0EB016B01C40ED51ECC15DD056B
:1007F00069F06991D701ED91FC910190F081E02DB4
:10080000C7010995F3CF642F0E945103C801DF91FE
:10081000CF911F910F91FF90EF90DF90CF900895AF
:10082000CF93DF931F92CDB7DEB769832091D601B6
:100830002223F9F02091F901203258F021E030E034
:10084000FC013383228390E080E00F90DF91CF9111
:1008500008958091FA01E82FF0E0EA54FE4F998163
:1008600090838F5F8093FA018093F90181E090E09B
:10087000ECCF61E0CE0101960E945103F7CFDC017D
:100880001A96ED91FC9130E020E00994DC01169677
:10089000ED91FC9130E020E040E069E10994DC0159
:1008A0001696ED91FC9130E020E040E068E109947B
:1008B0009A01DC011696ED91FC91462F67E10994AF
:1008C000EF92FF920F931F93CF93DF931F92CDB7B9
:1008D000DEB77C018B01D8016C91673129F150F4AE
:1008E0006531A0F40F90DF91CF911F910F91FF9090
:1008F000EF9008956A3118F16E3FA1F7F801418138
:10090000498369E2C7010E943F040BC0F80141819D
:100910004983D7011696ED91FC9130E020E0C701A4
:1009200009950E5F1F4FD7CFF80181818983AE01F2
:100930004F5F5F4F61E0C7010E945804F2CF0F5F25
:100940001F4FD7011696ED91FC9130E020E040E07A
:10095000C7010995C0CF462FDC011696ED91FC9199
:1009600030E020E066E10994462FDC011696ED9117
:10097000FC9130E020E065E10994EF92FF920F9343
:100980001F93CF93DF93EC01042F7901693039F481
:100990008DE491E09983888380E28C8B3BC06A3040
:1009A00009F040C0EA85FB8530E020E040E068E2E5
:1009B0000995EE81FF8130E020E040E064E1CE0166
:1009C000099541E06BE4CE010E943F04E881F98182
:1009D000448169E2CE010E943F0440E06BE4CE0115
:1009E0000E943F04E881F981448169E2CE010E94BE
:1009F0003F0441E06BE4CE010E943F04E881F981AD
:100A0000458169E2CE010E943F0460E071E0CE01C1
:100A10000E94600481E0DF91CF911F910F91FF90C0
:100A2000EF9008956D30D1F120F46B3079F180E0D2
:100A3000F2CF6E3009F444C06F30C9F70E944F0402
:100A4000F7011381110F110F110F6C89160F612F10
:100A500062956F706061CE010E94B404612F6F7067
:100A6000CE010E94B404F7016481606BCE010E9444
:100A7000B404F701408151816281660F660F660FF1
:100A8000CE010E9458040150A1F724C068E471E02F
:100A9000442309F4BCCF63E471E0B9CF411108C02D
:100AA0006CE371E00E946004E881F981828975CF6E
:100AB00065E371E00E946004E881F98183896DCF6C
:100AC0000E944F0461E8CE010E94B404602FCE0161
:100AD0000E94AB04CE010E9446049CCFDC01189614
:100AE000ED91FC9130E020E040E069E10994DC0107
:100AF0001896ED91FC9130E020E040E068E1099427
:100B0000CF93DF931F92CDB7DEB76983BE016F5FCE
:100B10007F4F0E9465020F90DF91CF910895EF9271
:100B2000FF921F93CF93DF93EC01162F7A010E945F
:100B3000770560E4CE010E948005E885F98597017C
:100B4000412F67E1CE010995CE01DF91CF911F9131
:100B5000FF90EF900C946E05EF92FF921F93CF934E
:100B6000DF93EC01142F7901663181F138F464319F
:100B700009F44BC0653179F080E022C06831C9F1D9
:100B800050F16931C9F78091B501882391F1CE0107
:100B90000E946E052EC08091B501882319F0CE0108
:100BA0000E946E05CE010E94770560E0CE010E9492
:100BB0008005612FCE010E94800581E08093B50100
:100BC000DF91CF911F91FF90EF900895642F0E94C5
:100BD000800581E0F5CF8091B501882319F0CE0121
:100BE0000E946E05A701193138F4612FCE010E94D1
:100BF0008F051092B501EDCF68E1CE010E948F05FF
:100C0000185188E1E80EF11CEDCF8E898F3F11F469
:100C100088E78E8BE885F9859701412F64E1CE0145
:100C2000DF91CF911F91FF90EF900994CF93DF93C5
:100C3000EC01A889B989FD013491319694913196DE
:100C400084911396FD01A4916317A8F1961798F16A
:100C5000631B770B8A9FE02D1124E69FC001E79F5D
:100C6000900D1124280F392F311D83E0220F331FDF
:100C70008A95E1F7C9010496DA01245F3F4FE889BC
:100C8000F989E80FF91FE491ED9301968217930714
:100C9000B1F78D89882361F0FA019A01285F3F4FEF
:100CA0008191DF01119780958C932E173F07C1F733
:100CB000DF91CF910895FA01CA0108961192E817C1
:100CC000F907E1F7E6CF4F925F926F927F928F9292
:100CD0009F92AF92BF92CF92DF92EF92FF920F93CB
:100CE0001F93CF93DF93CDB7DEB72D970FB6F89450
:100CF000DEBF0FBECDBF7C01C62ED42EB22EDC01CE
:100D000050968D919C91FC013296149131960491EC
:100D1000512E560E040F81E0860F581608F411E08C
:100D2000712CFE0131964F0144244394672CAC2C66
:100D3000262DA4016B2DC7010E941606AC86DD8608
:100D40004B869A868986D7011496ED91FC919E0177
:100D5000275F3F4F41E06FE0C70109956394A3947B
:100D6000A51430F3D394710ED01600F32D960FB660
:100D7000F894DEBF0FBECDBFDF91CF911F910F91D1
:100D8000FF90EF90DF90CF90BF90AF909F908F90AB
:100D90007F906F905F904F900895EF92FF920F9326
:100DA0001F93CF93DF93E82EE0919802F091990280
:100DB0003296C4911092A0028B01D0E0F12CF80180
:100DC00061918F01E0918A02F0918B0288E892E0B4
:100DD00009958F3F980771F08E3F2FEF920779F3B7
:100DE000282F4E2D6F2D88E892E00E946306FC0E9E
:100DF000DF5FE5CF8D2FDF91CF911F910F91FF9096
:100E0000EF900895CF92DF92EF92FF920F931F938E
:100E1000CF93DF93EC01962F683109F44BC0B901F1
:100E2000993130F49431C9F0973189F080E006C0EF
:100E3000993109F461C09032C9F781E0DF91CF9117
:100E40001F910F91FF90EF90DF90CF90089550E0A9
:100E500088E792E00E94E303F0CF8C859D85AE8504
:100E6000BF85892B8A2B8B2B71F4E881F981A585AD
:100E7000B0E020EA36E841E050E00E94A20C6C8726
:100E80007D878E879F871092F8011092F70110924C
:100E9000FA011092F9010E94780387EB93E0909396
:100EA00022028093210288EB93E0909326028093A4
:100EB0002502C3CF2C853D854E855F8560E078E4B3
:100EC00088EE91E00E947A0C2051310941095109C4
:100ED00056954795379527952093B8008E8990E0D1
:100EE0009595879591E09093D6018093B4011092E7
:100EF000FA011092F901A1CFD091F901D13208F095
:100F000093C0C091B4010E9425036B017C018091C4
:100F10004902811164C082E08093490281E080939C
:100F20004B028FEF8093480210926D02D0936C02B7
:100F3000A6EBB1E0ECE4F2E080E0D8137CC01092C4
:100F40006E0280916E02CC0FC82BC0936E0280910E
:100F50004A02813009F073C010924A020E942503B0
:100F60006B017C0180916E028093BB008091FC013B
:100F70009091FD01A091FE01B091FF01892B8A2B78
:100F80008B2B99F00E9425030091FC011091FD012B
:100F90002091FE013091FF016C197D098E099F0996
:100FA0000617170728073907D8F18091BC0083FD81
:100FB000D9CF85EC8093BC000E9425036B017C0196
:100FC000809149028230E9F1809148028F3F61F1BE
:100FD00080914802803241F18091480225C0809181
:100FE000FC019091FD01A091FE01B091FF01892BC0
:100FF0008A2B8B2B09F48BCF0E9425030091FC01D7
:101000001091FD012091FE013091FF016C197D09C5
:101010008E099F09061717072807390708F077CFA9
:101020008091FB010E9496031092FA011092F9013F
:101030001092D60102CF9D9191938F5F7ECF85EE66
:10104000B9CF8091FC019091FD01A091FE01B0917A
:10105000FF01892B8A2B8B2B09F4B2CF0E94250329
:101060000091FC011091FD012091FE013091FF01E2
:101070006C197D098E099F0906171707280739077C
:1010800008F09ECFCDCF1F93CF93DF93EC01EC8977
:10109000FD8949AD6A3059F43396E491E40FE9AF24
:1010A00018AE81E090E0DF91CF911F910895262F37
:1010B0003296149168AD04960E946306E8ADE10F84
:1010C000E8AFEFCFCF92DF92EF92FF920F931F9393
:1010D000CF93DF936C01EB017B01E40EF51E10E072
:1010E00000E0CE15DF0561F06991D601ED91FC912C
:1010F0000190F081E02DC6010995080F191FF1CF6D
:10110000C801DF91CF911F910F91FF90EF90DF9079
:10111000CF900895089590E080E0089585ED809344
:10112000BC008091FC019091FD01A091FE01B09165
:10113000FF010796A11DB11D23E0B695A7959795D0
:1011400087952A95D1F72091BC0024FD03C0109209
:10115000490208954091FC015091FD016091FE010A
:101160007091FF01452B462B472B69F30097A10592
:10117000B10541F025E52A95F1F700000197A10995
:10118000B109E1CF8091FB010C9496038F929F925D
:10119000AF92BF92CF92DF92EF92FF921F93CF93C5
:1011A000DF93EC016C32B0F46A32E8F5683241F159
:1011B000693209F445C080E06034B0F16F73FE011C
:1011C000E60FF11D868D8F3F71F1603108F07BC015
:1011D000642F13C06D3209F457C068F384EB860F97
:1011E000823048F76F73C60FD11D8E8D411167C0D5
:1011F00061E00E94D80260E08E8D0E94AA0213C0B6
:101200007C012EE1E20EF11CD0E0F70181917F011B
:101210008F3F31F061E0D03108F062E00E94D802E7
:10122000DF5FD63191F781E0DF91CF911F91FF9081
:10123000EF90DF90CF90BF90AF909F908F900895E8
:10124000C42ED12CF12CE12C0E9425034B015C0112
:10125000C114D104E104F10431F30E94250368199B
:1012600079098A099B09683E73408105910580F3DD
:10127000F1E0CF1AD108E108F10828EE820E23E050
:10128000921EA11CB11CE4CF60E070E080EA90E403
:10129000433020F060E070E080E090E40E94220C97
:1012A000CB01880F991F880F991F019700F400F058
:1012B00000F400F0000000000197D1F7B4CF62E025
:1012C0000E94D802B0CF282F30E0F901EE50FF4F36
:1012D0008491F901E653FF4FF490F901EE55FF4F69
:1012E0001491112379F081110E946D02E12FF0E039
:1012F000EE0FFF1FE858FF4FA591B491EC91FE222D
:1013000081E009F480E0898F8ECF1F920F920FB693
:101310000F9211242F933F938F939F93AF93BF937B
:101320008091700290917102A0917202B09173024B
:1013300030916F0220E4230F2D3728F023EC230F88
:101340000196A11DB11D20936F02809370029093AE
:101350007102A0937202B093730280917402909113
:101360007502A0917602B09177020196A11DB11D80
:101370008093740290937502A0937602B0937702E3
:10138000BF91AF919F918F913F912F910F900FBE81
:101390000F901F9018951F920F920FB60F92112465
:1013A0002F933F934F935F936F937F938F939F936D
:1013B000AF93BF93EF93FF938091B900887F8036FE
:1013C00009F44AC0F0F5883209F4A7C018F5803155
:1013D00009F49BC0B8F4882309F4F9C0883009F4F3
:1013E00094C0FF91EF91BF91AF919F918F917F91A9
:1013F0006F915F914F913F912F910F900FBE0F9082
:101400001F901895883109F488C0803251F7809375
:10141000480214C0803409F49DC040F48033B9F30D
:101420008833F9F68093480285ECB0C0803509F422
:1014300085C0883509F496C0883499F60E948E08D4
:10144000D0CF883909F48CC038F5883729F050F4AA
:10145000883611F0803729F683E080934902109294
:10146000470257C0883809F47BC0803919F08038AA
:1014700009F0B7CF80914702803208F071C0E09147
:10148000470281E08E0F809347028091BB00F0E01D
:10149000E95DFD4F80833DC0803B39F0E0F4803A48
:1014A00009F479C0883A09F09CCF84E0809349021E
:1014B0001092240210922302E0912102F091220264
:1014C00009958091230281110FC081E0809323024E
:1014D0001092010209C0803C09F4A6CF883C09F4AF
:1014E000A3CF883B09F07DCFE091240281E08E0FED
:1014F00080932402F0E0EF5FFD4F80818093BB007A
:10150000909124028091230229C080916E028093E1
:10151000BB0085EC8093BC0064CF90916D028091FC
:101520006C02981758F5E0916D0281E08E0F809360
:101530006D02F0E0E45BFD4F8081E9CFE0916D0248
:1015400081E08E0F80936D028091BB00F0E0E45B40
:10155000FD4F808390916D0280916C029817C8F2C4
:1015600085E8D8CFE0916D0281E08E0F80936D0207
:101570008091BB00F0E0E45BFD4F808380914B02E3
:1015800081115CCF81E080934A0284EA8093BC00A1
:101590001092490226CF85EC8093BC00109249023C
:1015A00080914702803230F4E0914702F0E0E95D3B
:1015B000FD4F10826091470270E0E0912502F091AA
:1015C000260287E292E00995109247020ACF109214
:1015D000480234CFCF9310927B0210927A0288EEA9
:1015E00093E0A0E0B0E080937C0290937D02A09312
:1015F0007E02B0937F0289E691E090937902809316
:10160000780210928702109286021092BC02109209
:10161000BD028BE791E09093850280938402109243
:1016200089021092880210929D021092A0021092DC
:1016300094021092950210929602109297028FEFE8
:1016400080939E028093A202E6EAF2E08CEB92E0A5
:10165000CFEFC1938E179F07E1F78DEB94E0909346
:101660008D0280938C028CEA95E090938F02809398
:101670008E0282E097E0909391028093900286EC34
:1016800098E0909393028093920230E020E040E053
:1016900069E088E892E00E94BD04C093B102C09363
:1016A000B202C093B302CF910895CF93DF93CDB729
:1016B000DEB728970FB6F894DEBF0FBECDBF80917E
:1016C000F20080618EBB80E88093F2009EB390931D
:1016D000F2008093610091E0909361009091F2009C
:1016E0009F799EBB8093F2009EB39093F2009091FD
:1016F000F2009B7F9EBB8093F2009EB39093F2001A
:101700008093610010926100789484B5826084BDFA
:1017100084B5816084BD85B5826085BD85B58160F5
:1017200085BD80916E00816080936E001092810073
:10173000809181008260809381008091810081602E
:1017400080938100809180008160809380008091EF
:10175000B10084608093B1008091B000816080937B
:10176000B0008091910082608093910080919100FF
:1017700081608093910080919000816080939000BF
:1017800080917A00846080937A0080917A008D7FC6
:1017900080937A0080917A008E7F80937A00809186
:1017A0007A00806880937A001092C100E0918C02E8
:1017B000F0918D0230E020E040E06AE088E892E0BD
:1017C0000995CE01019628E0FC0111922A95E9F7CE
:1017D0000E943302E0918C02F0918D0230E020E013
:1017E00040E06BE088E892E00995E0918C02F0918E
:1017F0008D0230E020E040E06BE088E892E009955F
:1018000088E091E0909399028093980207E413E0B6
:1018100010938B0200938A0263E871E080E00E94DB
:10182000CD0610938B0200938A0269E871E081E093
:101830000E94CD0600E010E001151105E9F30E94B9
:101840000000FACF0E94590C88F09F5798F0B92FEA
:101850009927B751B0F0E1F0660F771F881F991FE5
:101860001AF0BA95C9F714C0B13091F00E94730C08
:10187000B1E008950C94730C672F782F8827B85F18
:1018800039F0B93FCCF3869577956795B395D9F73D
:101890003EF490958095709561957F4F8F4F9F4F47
:1018A000089557FD9058440F551F59F05F3F71F050
:1018B0004795880F97FB991F61F09F3F79F08795B7
:1018C0000895121613061406551FF2CF4695F1DF40
:1018D00008C0161617061806991FF1CF86957105D0
:1018E000610508940895E894BB2766277727CB0104
:1018F00097F90895A1E21A2EAA1BBB1BFD010DC08A
:10190000AA1FBB1FEE1FFF1FA217B307E407F507AF
:1019100020F0A21BB30BE40BF50B661F771F881F8B
:10192000991F1A9469F760957095809590959B0121
:10193000AC01BD01CF010895EE0FFF1F0590F4919A
:10194000E02D09940E94AD0CA59F900DB49F900DC1
:10195000A49F800D911D11240895A29FB001B39FF3
:10196000C001A39F700D811D1124911DB29F700DA8
:0C197000811D1124911D0895F894FFCFF3
:10197C001815AE15D5168015A8161F15D3160015FB
:10198C0040158D16141520160015A115C815DA165C
:10199C0012158116CF15D9162215DB1600152E152A
:1019AC00A415A619FF1815A015C019FF1815A11517
:1019BC00C819FF1815AE19FF1815AF19FF0001143F
:1019CC000A6464323200127A00000428960804205B
:1019DC002040002000000000001004E3038B08B935
:1019EC0003DC03C903BA0300000000430862088B40
:1019FC00088A0848656C6C6F00576F726C64210024
:00000001FF
