:020000040000FA
:100000000C9462000C948A000C948A000C948A0070
:100010000C948A000C948A000C948A000C948A0038
:100020000C948A000C948A000C948A000C948A0028
:100030000C948A000C948A000C948A000C948A0018
:100040000C9424020C948A000C9494020C946E027A
:100050000C948A000C948A000C948A000C948A00F8
:100060000C948A000C948A000000000025002800EF
:100070002B0000000000240027002A0000000000E0
:1000800023002600290004040404040404040202DA
:100090000202020203030303030301020408102007
:1000A0004080010204081020010204081020000012
:1000B0000008000201000003040700000000000027
:1000C0000000EF0311241FBECFEFD8E0DEBFCDBF8D
:1000D00011E0A0E0B1E0ECE8F8E002C005900D927C
:1000E000A631B107D9F721E0A6E1B1E001C01D9228
:1000F000AC3BB207E1F710E0C2E6D0E004C02197C4
:10010000FE010E943E04C136D107C9F70E94C60213
:100110000C9444040C940000806480937C008091D3
:100120007A00806480937A0080917A0086FDFCCF0B
:1001300080917800909179000895AF92BF92CF920C
:10014000DF92EF92FF920F931F93CF93DF936C0197
:100150007B018B01040F151FEB015E01AE18BF0878
:10016000C017D10759F06991D601ED91FC9101902A
:10017000F081E02DC6010995892B79F7C501DF9142
:10018000CF911F910F91FF90EF90DF90CF90BF9094
:10019000AF900895FC01538D448D252F30E0842FBE
:1001A00090E0821B930B541710F0CF96089501979F
:1001B0000895FC01918D828D981761F0A28DAE0F8C
:1001C000BF2FB11D5D968C91928D9F5F9F73928F13
:1001D00090E008958FEF9FEF0895FC01918D828D3F
:1001E000981731F0828DE80FF11D858D90E008950C
:1001F0008FEF9FEF0895FC01918D228D892F90E064
:10020000805C9F4F821B91098F73992708958FE11E
:1002100091E00E94FB0021E0892B09F420E0822F6D
:10022000089580E090E0892B29F00E940701811158
:100230000C9400000895FC01A48DA80FB92FB11DE6
:10024000A35ABF4F2C91848D90E001968F7399270C
:10025000848FA689B7892C93A089B1898C918370EA
:1002600080648C93938D848D981306C00288F389E3
:10027000E02D80818F7D80830895EF92FF920F9310
:100280001F93CF93DF93EC0181E0888F9B8D8C8D42
:1002900098131AC0E889F989808185FF15C09FB736
:1002A000F894EE89FF896083E889F98980818370F9
:1002B000806480839FBF81E090E0DF91CF911F91A8
:1002C0000F91FF90EF900895F62E0B8D10E00F5FC9
:1002D0001F4F0F731127E02E8C8D8E110CC00FB69F
:1002E00007FCFACFE889F989808185FFF5CFCE0137
:1002F0000E941B01F1CFEB8DEC0FFD2FF11DE35A96
:10030000FF4FF0829FB7F8940B8FEA89FB898081B9
:100310008062CFCFCF93DF93EC01888D8823B9F033
:10032000AA89BB89E889F9898C9185FD03C0808100
:1003300086FD0DC00FB607FCF7CF8C9185FFF2CF7D
:10034000808185FFEDCFCE010E941B01E9CFDF91B7
:10035000CF9108958F929F92AF92BF920F931F9368
:10036000CF93DF93CDB7DEB7A1970FB6F894DEBF7A
:100370000FBECDBF19A2423008F44AE08E010F5DD6
:100380001F4F842E912CB12CA12CA50194010E9409
:100390001C04E62FB901CA01EA3044F5E05DD8013A
:1003A000EE938D01232B242B252B79F790E080E011
:1003B000109769F0FD0101900020E9F73197AF0136
:1003C0004A1B5B0BBD018FE191E00E949D00A1964D
:1003D0000FB6F894DEBF0FBECDBFDF91CF911F9156
:1003E0000F91BF90AF909F908F900895E95CD7CF09
:1003F000CF92DF92EF92FF92CF93DF9397FF1BC0D4
:100400006B017C016DE28FE191E00E943D01EC0106
:1004100066277727CB016C197D098E099F094AE071
:100420000E94AA018C0F9D1FDF91CF91FF90EF904A
:10043000DF90CF9008954AE0DF91CF91FF90EF9049
:10044000DF90CF900C94AA011F920F920FB60F92DB
:1004500011242F933F938F939F93AF93BF938091DA
:100460001B0190911C01A0911D01B0911E013091C2
:100470001A0123E0230F2D3758F50196A11DB11D58
:1004800020931A0180931B0190931C01A0931D01DE
:10049000B0931E018091160190911701A09118014F
:1004A000B09119010196A11DB11D80931601909381
:1004B0001701A0931801B0931901BF91AF919F91BB
:1004C0008F913F912F910F900FBE0F901F90189515
:1004D00026E8230F0296A11DB11DD2CF1F920F92C5
:1004E0000FB60F9211242F933F934F935F936F9307
:1004F0007F938F939F93AF93BF93EF93FF938FE17E
:1005000091E00E941B01FF91EF91BF91AF919F91EC
:100510008F917F916F915F914F913F912F910F90AC
:100520000FBE0F901F9018951F920F920FB60F924B
:1005300011242F938F939F93EF93FF93E0912F01BB
:10054000F09130018081E0913501F091360182FD1A
:100550001BC09081809138018F5F8F73209139018A
:10056000821741F0E0913801F0E0E15EFE4F958F97
:1005700080933801FF91EF919F918F912F910F9070
:100580000FBE0F901F9018958081F4CF789484B59A
:10059000826084BD84B5816084BD85B5826085BD7F
:1005A00085B5816085BD80916E00816080936E000D
:1005B00010928100809181008260809381008091FF
:1005C00081008160809381008091800081608093B0
:1005D00080008091B10084608093B1008091B00070
:1005E00081608093B00080917A00846080937A006B
:1005F00080917A00826080937A0080917A00816095
:1006000080937A0080917A00806880937A001092BB
:10061000C100E0912F01F091300182E08083E091F0
:100620002B01F0912C011082E0912D01F0912E010F
:100630008FEC808310923701E0913301F091340107
:1006400086E08083E0913101F09132018081806108
:100650008083E0913101F091320180818860808354
:10066000E0913101F0913201808180688083E091D6
:100670003101F091320180818F7D8083CDE9D0E01E
:10068000FE01249109E810E0F80184918823C9F063
:1006900090E0880F991FFC01EE58FF4FA591B4918F
:1006A000FC01E859FF4F459154919FB7F8943C9154
:1006B000822F809583238C93FA018081282B2083BD
:1006C0009FBF91EBE92E90E0F92E24E6B22E30E0A8
:1006D000C32E30E0D32E80E00E948C00BC01990F25
:1006E000880B990B0E94F8016CE28FE191E00E9467
:1006F0003D0181E00E948C00BC01990F880B990B91
:100700000E94F8016CE28FE191E00E943D01F70147
:100710008491FE019491F8012491222309F45CC094
:10072000882351F0833009F440C0A8F5813009F4E2
:1007300042C0823009F443C0E22FF0E0EE0FFF1F09
:10074000E458FF4FA591B4918C91982331E020E0BB
:1007500009F430E0832F922FB89EB001B99E700D3E
:100760001124072E000C880B990B0E94F80142E01F
:1007700050E062E171E08FE191E00E949D00C114C0
:10078000D10409F4A8CF0E940701882309F4A3CF5C
:100790000E940000A0CF8730A9F08830C9F08430D3
:1007A00059F6809180008F7D03C0809180008F7703
:1007B00080938000C1CF84B58F7784BDBDCF84B5D1
:1007C0008F7DFBCF8091B0008F778093B000B4CF46
:1007D0008091B0008F7DF9CF90E080E0BDCFEFE158
:1007E000F1E01382128288EE93E0A0E0B0E084830F
:1007F0009583A683B78384E091E09183808385EC21
:1008000090E09587848784EC90E09787868780ECDA
:1008100090E0918B808B81EC90E0938B828B82ECCB
:1008200090E0958B848B86EC90E0978B868B118E75
:10083000128E138E148E0895A1E21A2EAA1BBB1BD2
:10084000FD010DC0AA1FBB1FEE1FFF1FA217B3079C
:10085000E407F50720F0A21BB30BE40BF50B661FB2
:10086000771F881F991F1A9469F760957095809576
:1008700090959B01AC01BD01CF010895EE0FFF1FC4
:100880000590F491E02D0994F894FFCF000000004A
:100890003D019D00CA008A01FB00D900ED000D0A50
:0208A000000056
:107E0000112484B714BE81FFF0D085E080938100F7
:107E100082E08093C00088E18093C10086E0809377
:107E2000C20080E18093C4008EE0C9D0259A86E02C
:107E300020E33CEF91E0309385002093840096BBD3
:107E4000B09BFECF1D9AA8958150A9F7CC24DD24C4
:107E500088248394B5E0AB2EA1E19A2EF3E0BF2EE7
:107E6000A2D0813461F49FD0082FAFD0023811F036
:107E7000013811F484E001C083E08DD089C08234E0
:107E800011F484E103C0853419F485E0A6D080C0E4
:107E9000853579F488D0E82EFF2485D0082F10E0AE
:107EA000102F00270E291F29000F111F8ED06801E7
:107EB0006FC0863521F484E090D080E0DECF843638
:107EC00009F040C070D06FD0082F6DD080E0C81688
:107ED00080E7D80618F4F601B7BEE895C0E0D1E017
:107EE00062D089930C17E1F7F0E0CF16F0E7DF06D8
:107EF00018F0F601B7BEE89568D007B600FCFDCFD4
:107F0000A601A0E0B1E02C9130E011968C91119780
:107F100090E0982F8827822B932B1296FA010C0160
:107F200087BEE89511244E5F5F4FF1E0A038BF0790
:107F300051F7F601A7BEE89507B600FCFDCF97BE46
:107F4000E89526C08437B1F42ED02DD0F82E2BD052
:107F50003CD0F601EF2C8F010F5F1F4F84911BD097
:107F6000EA94F801C1F70894C11CD11CFA94CF0C13
:107F7000D11C0EC0853739F428D08EE10CD085E9AC
:107F80000AD08FE07ACF813511F488E018D01DD067
:107F900080E101D065CF982F8091C00085FFFCCF94
:107FA0009093C60008958091C00087FFFCCF809118
:107FB000C00084FD01C0A8958091C6000895E0E648
:107FC000F0E098E1908380830895EDDF803219F02E
:107FD00088E0F5DFFFCF84E1DECF1F93182FE3DFCA
:107FE0001150E9F7F2DF1F91089580E0E8DFEE27F6
:047FF000FF270994CA
:027FFE00040479
:00000001FF
