S014000041746D656761382D554152542E7372656320
S113000012C024C023C022C021C020C01FC01EC0F3
S11300101DC01CC01BC01AC019C018C017C016C010
S113002015C014C013C011241FBECFE5D4E0DEBF39
S1130030CDBF10E0A0E6B0E0E0EBF1E002C0059037
S11300400D92AA38B107D9F702D0B0C0D9CFCF9357
S1130050DF93CDB7DEB766970FB6F894DEBF0FBE59
S1130060CDBFA09A86E0E3E7F0E0DE0111960190AF
S11300700D928A95E1F780E1E9E7F0E0DE01179659
S113008001900D928A95E1F783E390E02AD02FEF57
S113009089E698E1215080409040E1F700C00000DB
S11300A080E690E02AD052D000E010E0DD24D39422
S11300B05F9BFECF4ED0893779F485B38D2585BB00
S11300C0CE0107961AD078012FEFE21AF20AC8017E
S11300D022D03CD08701ECCFCE0101960ED036D091
S11300E0E7CF90BD89B9539A549A80B5866880BD8C
S11300F008955D9BFECF8CB90895CF93DF93EC01F7
S11301008881882329F02196F4DF89918111FCCF1D
S1130110DF91CF910895CF93DF93CDB7DEB72A97C0
S11301200FB6F894DEBF0FBECDBF4AE0BE016F5FCD
S11301307F4F13D0CE010196E0DF2A960FB6F894D4
S1130140DEBF0FBECDBFDF91CF9108958DE0D1DF2B
S113015008955F9BFECF8CB10895BB27FB01552703
S1130160AA27880F991FAA1FA41710F0A41B839510
S11301705051B9F7A05DAA3308F0A95DA193009787
S113018079F7B111B1931192CB0100C0DC01FC01EC
S1130190672F71917723E1F7329704C07C916D93B7
S11301A070836291AE17BF07C8F30895F894FFCF28
S11301B055415254206C656420636F6E74726F6C89
S11301C02E20006572726F72007072657373206EF8
S10D01D0756D626572202D20000099
S9030000FC
