:020000040800F2
:10000000680600205D01000865010008670100081E
:10001000690100086B0100086D0100080000000084
:100020000000000000000000000000006F01000858
:10003000710100080000000073010008750100084C
:100040007701000877010008770100080000000030
:100050000000000077010008770100087701000820
:100060007701000800000000770100087701000810
:100070007701000800000000770100087701000800
:1000800077010008770100080000000077010008F0
:1000900077010008000000000000000000000000E0
:1000A00000000000000000000000000077010008D0
:1000B0007701000877010008770100087701000840
:1000C00000F002F800F03AF80AA090E8000C824430
:1000D0008344AAF10107DA4501D100F02FF8AFF20D
:1000E000090EBAE80F0013F0010F18BFFB1A43F016
:1000F000010318471803000038030000103A24BF1A
:1001000078C878C1FAD8520724BF30C830C144BF7C
:1001100004680C60704700000023002400250026BE
:10012000103A28BF78C1FBD8520728BF30C148BF5A
:100130000B6070471FB51FBD10B510BD00F031F842
:100140001146FFF7F7FF00F059F900F04FF803B43C
:10015000FFF7F2FF03BC00F057F8000009488047A2
:1001600009480047FEE7FEE7FEE7FEE7FEE7FEE799
:10017000FEE7FEE7FEE7FEE704480549054A064BB1
:100180007047000099030008C100000868000020C3
:10019000680600206802002068020020704770474F
:1001A0007047754600F02CF8AE4605006946534688
:1001B00020F00700854618B020B5FFF7DDFFBDE849
:1001C00020404FF000064FF000074FF000084FF0BE
:1001D000000BAC46ACE8C009ACE8C009ACE8C0090B
:1001E000ACE8C00921F007018D46704710B5044600
:1001F000AFF300802046BDE81040FFF7A8BF000025
:10020000004870470800002001491820ABBEFEE7F7
:1002100026000200704700001C21C4F20201086899
:1002200040F4400008600421C4F20B01086840F06B
:10023000060008600C21C4F20B01086840F00600BB
:1002400008601821C4F20B01086840F0140008602F
:1002500048F20401C4F20B01086840F00400086091
:1002600048F20C01C4F20B01086840F00400086079
:1002700048F21801C4F20B01086840F01000086051
:100280000021C4F20B01086840F002000860086811
:1002900040F00400086048F20001C4F20B01086855
:1002A00040F004000860704785B00C20C4F20200E2
:1002B00000688007002806D5FFE741F20020C0F261
:1002C0007A00049005E041F20020C0F27A00049028
:1002D000FFE70C20C4F202000068C00720B1FFE76E
:1002E000049840080490FFE7049803900C20C4F29F
:1002F00002000068400700280DD5FFE70420C4F283
:1003000002000068C0F303200130019001990398B6
:1003100048430390FFE70C20C4F202000068C0F3DA
:1003200001200146009140B1FFE7009801280ED05E
:10033000FFE7009802281CD023E040F20001C2F23F
:10034000000141F20020C0F27A00086021E0039829
:100350000C21C4F202010968C1F303110131B0FBA1
:10036000F1F00290029840F20001C2F20001086030
:100370000FE040F20001C2F200014FF400400860BB
:1003800007E040F20001C2F2000149F64040086077
:10039000FFE705B07047000080B51C21C4F20201E0
:1003A000102008600C21C4F2020100200860042122
:1003B000C4F2020108600821C4F2020108601021A1
:1003C000C4F2020108601421C4F20201086018217D
:1003D000C4F2020108602021C4F202010860242155
:1003E000C4F2020108602821C4F2020108602C2135
:1003F000C4F202010860FFF757FF80BD80B582B0EC
:1004000000200190FFF708FFFFE7FEE72C0400083B
:100410000000002004000000FC0000083004000878
:1004200008000020600600001801000800127A0091
:040000050800015D91
:00000001FF
