S016000041746D656761385F6473313330372E7372656386
S113000012C00AC12BC061C06FC028C027C026C05F
S113001025C024C023C022C021C020C01FC01EC0D0
S11300201DC01CC01BC011241FBECFE5D4E0DEBF21
S1130030CDBF10E0A0E6B0E0E6E9F2E002C0059032
S11300400D92AA36B107D9F720E0AAE6B0E001C0C4
S11300501D92A437B207E1F70CD11BC1D1CFEFE653
S1130060F0E023834283618380830895ABE6B0E0AC
S1130070E82FF0E0E05AFF4F808113968C9313979A
S1130080E62FF0E0E05AFF4F808112968C9312978E
S1130090E42FF0E0E05AFF4F808111968C93119782
S11300A0E22FF0E0E05AFF4F80818C9308958FEFA8
S11300B087BB84B38F6084BB85B5846085BD89B7F5
S11300C0806C89BF84E683BD08951F920F920FB69A
S11300D00F9211248F9385B3807F85BB8F910F90EE
S11300E00FBE0F901F9018951F920F920FB60F928C
S11300F011248F9380916A00813089F028F0823036
S1130100C9F0833011F12AC080916B0088BBAB9A8F
S113011080916F0083BD81E080936A001FC080914D
S11301206C0088BBAA9A8091700083BD82E08093A2
S11301306A0014C080916D0088BBA99A80917100F7
S113014083BD83E080936A0009C080916E0088BB00
S1130150A89A8091720083BD10926A008F910F90CB
S11301600FBE0F901F901895CF93DF93D82FC62FF3
S11301706AD080ED6FD08D2F6DD08C2F6BD067D06F
S1130180DF91CF910895CF93C82F5DD080ED62D0D9
S11301908C2F60D05CD057D081ED5CD080E05FD0F4
S11301A0C82F55D08C2FCF91089580E0ECDF8823A1
S11301B01CF460E080E0D8DF85B7826085BF8BB730
S11301C080648BBF60E187E0CFDF0895CF93DF9336
S11301D0809173008823E9F036D080ED3BD080E035
S11301E039D035D030D081ED35D081E038D0C82F2A
S11301F080E035D0D82F2BD02C2F2F704C2F429548
S11302004F706D2F6F708D2F82958F702FDF10922E
S11302107300DF91CF9108951F920F920FB60F9242
S113022011248F9381E0809373008F910F900FBE00
S11302300F901F90189511B880E280B9089506B602
S113024007FEFDCF089584EA86BFF9DF089584E9A7
S113025086BF089583B984E886BFF1DF08958823B3
S113026019F084EC86BF02C084E886BFE8DF83B15E
S11302700895E1DF9ADF1BDF24E043E062E081E0E0
S1130280F5DE2FEF4FEF6FEF8FEFE9DE78949EDF0F
S1090290FECFF894FFCF3D
S10D02963F065B4F666D7D077F6F26
S9030000FC
