:1000000009C019C018C017C016C015C014C013C04D
:1000100012C011C011241FBECFE9CDBF10E0A0E671
:10002000B0E0EAE4F1E002C005900D92A637B10716
:10003000D9F735D088C0E4CFC19812BE92B79F31AE
:10004000E8F320E030E0482F50E0CA01022E02C061
:10005000959587950A94E2F780FF02C0C19A01C086
:10006000C19882B78F31E8F32F5F3F4F28303105B9
:1000700061F7C19A82B78F31E8F30895CF93DF9388
:10008000EC018881882329F02196D6DF899181119E
:10009000FCCFDF91CF910895B99AC19A0895CF937B
:1000A000DF93CDB7DD27CA50CDBF82E08FBD83BFC0
:1000B0008FE186BFF1DF10E04AE0BE016F5F7F4F46
:1000C000812F90E017D0CE010196D8DF80E690E036
:1000D000D5DF83E690E0D2DF80E690E0CFDF1F5FE0
:1000E0002FE789EA93E0215080409040E1F700C07B
:1000F0000000E2CFBB27FB015527AA27880F991FD5
:10010000AA1FA41710F0A41B83955051B9F7A05D46
:10011000AA3308F0A95DA193009779F7B111B193C3
:100120001192CB0100C0DC01FC01672F7191772394
:10013000E1F7329704C07C916D9370836291AE17A2
:0A014000BF07C8F30895F894FFCF3D
:10014A000D0A00FF20F8EBFE20E2F1E5F520E2209F
:06015A00EFEEF0F20000E0
:00000001FF
