:1000000009C016C015C01EC013C012C011C010C058
:100010000FC00EC011241FBECFE9CDBF20E0A0E667
:10002000B0E001C01D92A436B207E1F730D05CC049
:10003000E7CF892B21F48FB58F778FBD08958FB5CA
:100040008F7DFBCF1F920F920FB60F9211248F93CB
:100050009F93AF93BF938091600090916100A091B6
:100060006200B09163000196A11DB11D80936000F4
:1000700090936100A0936200B0936300BF91AF9131
:100080009F918F910F900FBE0F901F90189583B77F
:10009000816083BF8FB583608FBD89B7826089BF60
:1000A00012BE789486B1826886B9B99A81E090E0F0
:1000B000C0DFC19A85E690E0019779F481E090E095
:1000C000B8DFC19885E690E0019781F3E9EFF0E0B1
:1000D0003197F1F700C00000F7CFE9EFF0E031977A
:0C00E000F1F700C00000E8CFF894FFCF5B
:00000001FF
