:020000040000FA
:108000004889000041810000498100004B81000047
:108010004D8100004F8100005181000000000000F0
:10802000000000000000000000000000538100007C
:1080300055810000000000005781000059810000B8
:108040005B8100005B8100005B810000000000009C
:10805000000000005B8100005B8100005B8100008C
:108060005B810000000000005B8100005B8100007C
:108070005B810000000000005B8100005B8100006C
:108080005B8100005B810000000000005B8100005C
:108090005B81000000000000000000000000000004
:1080A0000000000000000000000000005B810000F4
:1080B0005B8100005B8100005B8100005B81000050
:1080C00000F002F800F02CF80AA090E8000C8244BE
:1080D0008344AAF10107DA4501D100F021F8AFF29B
:1080E000090EBAE80F0013F0010F18BFFB1A43F096
:1080F00001031847E0010000F00100000023002404
:1081000000250026103A28BF78C1FBD8520728BFA7
:1081100030C148BF0B6070471FB51FBD10B510BD03
:1081200000F031F81146FFF7F7FF00F0ADF800F06E
:108130004FF803B4FFF7F2FF03BC00F057F800005C
:108140000948804709480047FEE7FEE7FEE7FEE7EB
:10815000FEE7FEE7FEE7FEE7FEE7FEE70448054927
:10816000054A064B70470000FD810000C1800000F9
:1081700048830000488900004885000048850000C9
:10818000704770477047754600F02CF8AE46050002
:108190006946534620F00700854618B020B5FFF722
:1081A000DDFFBDE820404FF000064FF000074FF024
:1081B00000084FF0000BAC46ACE8C009ACE8C009C1
:1081C000ACE8C009ACE8C00921F007018D46704752
:1081D00010B50446AFF300802046BDE81040FFF71D
:1081E000A8BF000000487047E8820000014918203D
:1081F000ABBEFEE726000200704700000C20C4F270
:108200000200102101610021016040F8081C40F8C3
:10821000041C41608160C16041618161C161016292
:10822000016801680268C90740F60011C0F23D010B
:1082300004BF41F20021C0F27A01520705D550F87F
:10824000082CC2F30322013251430268C2F3012217
:1082500052B1022A0DD0012A0ED10068C0F30310DA
:108260000130B1FBF0F009E041F20020C0F27A00E9
:1082700004E04FF4004001E049F6404048F2E421B8
:10828000C0F200010860704781B01C21C4F20201F5
:108290000A6848F2000042F40002C4F20B000A60CF
:1082A000816941F030018161C16841F00401C16020
:1082B000416841F0040141600021ADF8021000BFA7
:1082C000BDF802100029FBD1016881F004010160B2
:1082D000F6E70000E8820000E88200006006000087
:0882E000FC80000000127A008E
:040000050000814135
:00000001FF
