S019000041746D656761385F616463627574746F6E2E7372656361
S113000012C021C020C01FC01EC01DC01CC01BC008
S11300101AC019C018C017C016C015C027C013C015
S113002012C011C010C011241FBECFE5D4E0DEBF42
S1130030CDBF20E0A0E6B0E001C01D92A336B20718
S1130040E1F74CD07AC0DCCF893C40F4813A40F4EB
S11300508F3640F48F3140F481E0089580E00895B4
S113006084E0089583E0089582E008951F920F923A
S11300700FB60F9211242F933F934F935F936F9377
S11300807F938F939F93AF93BF93EF93FF9385B128
S1130090DBDF90916100891719F0109260000BC0AA
S11300A0909160009F3F39F09F5F909360009E3174
S11300B011F48093620080936100FF91EF91BF91EE
S11300C0AF919F918F917F916F915F914F913F91EC
S11300D02F910F900FBE0F901F9018953D9A86B1E7
S11300E08F6E86B981B38F6081BB789442E034E02F
S11300F028E091E0809162008823E1F3809162001E
S1130100823069F018F4813031F014C0833059F032
S1130110843069F00FC082B3892782BB0BC082B3DD
S1130120842782BB07C082B3832782BB03C082B308
S1110130822782BB10926200DDCFF894FFCFCD
S9030000FC
