:020000040800F2
:10000000700600206D0100087501000877010008E6
:10001000790100087B0100087D0100080000000054
:100020000000000000000000000000007F01000848
:10003000810100080000000083010008810300081E
:100040008701000887010008870100088701000870
:100050008701000887010008870100088701000860
:100060008701000887010008870100088701000850
:100070008701000887010008870100088701000840
:100080008701000887010008870100088701000830
:100090008701000887010008870100088701000820
:1000A0008701000887010008870100088701000810
:1000B0008701000887010008870100088701000800
:1000C00087010008870100088701000887010008F0
:1000D00087010008870100088701000887010008E0
:1000E00087010008870100088701000800F002F876
:1000F00000F02CF80AA090E8000C82448344AAF196
:100100000107DA4501D100F021F8AFF2090EBAE893
:100110000F0013F0010F18BFFB1A43F0010318473B
:10012000D4040000E404000000230024002500267D
:10013000103A28BF78C1FBD8520728BF30C148BF4A
:100140000B6070471FB51FBD10B510BD00F031F832
:100150001146FFF7F7FF00F009FA00F04FF803B47B
:10016000FFF7F2FF03BC00F057F800000948804792
:1001700009480047FEE7FEE7FEE7FEE7FEE7FEE789
:10018000FEE7FEE7FEE7FEE704480549054A064BA1
:100190007047000005050008ED0000087000002011
:1001A0007006002070020020700200207047704727
:1001B0007047754600F02CF8AE4605006946534678
:1001C00020F00700854618B020B5FFF7DDFFBDE839
:1001D00020404FF000064FF000074FF000084FF0AE
:1001E000000BAC46ACE8C009ACE8C009ACE8C009FB
:1001F000ACE8C00921F007018D46704710B50446F0
:10020000AFF300802046BDE81040FFF7A8BF000014
:10021000004870470000002001491820ABBEFEE7EF
:10022000260002007047000041F21801C4F20201EA
:10023000086840F01000086041F20401C4F20101B6
:10024000086820F440000860086840F44010086026
:100250007047000080B500F001F880BD84B0002038
:100260000390029041F20001C4F20201086840F4D8
:1002700080300860FFE741F20000C4F2020000682D
:1002800000F400300290039801300390FFE70299D8
:100290000020019039B9FFE70398B0F5A06018BFBE
:1002A00001200190FFE70198C0070028E3D1FFE794
:1002B00041F20000C4F2020000688003002803D568
:1002C000FFE70120029002E000200290FFE7029881
:1002D000012851D1FFE742F20001C4F2020108688F
:1002E00040F010000860086820F007000860086807
:1002F00040F00200086041F20401C4F202010091E2
:100300000868086008680860086840F48060086051
:10031000086820F47C100860086840F4E810086061
:1003200041F20001C4F20201086840F080700860E8
:10033000FFE741F20000C4F20200006880010028DB
:1003400001D4FFE7F5E741F20401C4F202010868B5
:1003500020F003000860086840F002000860FFE732
:1003600041F20400C4F20200006800F00C0008280A
:1003700001D0FFE7F4E700E0FFE704B070470000BA
:1003800040F26401C2F2000108680130086040F2E6
:100390006000C2F20000006840B1FFE740F2600177
:1003A000C2F20001086801380860FFE770470000EA
:1003B0004EF21001CEF20001086820F00100086042
:1003C000086840F002000860086840F00400086017
:1003D0004EF21402CEF20002106841F63F13C0F252
:1003E0000103184310604EF21802CEF200021068AA
:1003F00018431060086840F0010008607047000072
:1004000081B041F20001C4F20201086840F001002D
:100410000860FFE741F20000C4F2020000688007B4
:10042000002801D4FFE7F5E741F20001C4F2020120
:10043000086840F480300860FFE741F20000C4F231
:10044000020000688003002801D4FFE7F5E741F2CD
:100450000001C4F20201086820F4802008600868E6
:1004600040F40020086041F20402C4F2020200924B
:10047000106840F002001060106840F00800106042
:100480001068106042F20003C4F20203186840F0E2
:1004900002001860186840F010001860186840F0FA
:1004A00020001860106840F48060106010681060D0
:1004B000106840F400401060106840F48030106014
:1004C000106820F400301060106840F4E0101060F4
:1004D000106820F480001060106840F0E060106048
:1004E000086840F080700860FFE741F20000C4F245
:1004F000020000688001002801D4FFE7F5E701B0A1
:100500007047000080B541F20002C4F20202106898
:1005100040F00100106041F20401C4F202010868D9
:100520000023CFF6FF031840086010684FF6FF73F2
:10053000CFF6F66318401060106820F48020106039
:10054000086820F4FE00086041F20801C4F20201CC
:100550004FF41F000860FFF77DFE4EF60851CEF203
:1005600000014FF00060086080BD000080B582B0DF
:1005700000200190FFF71CFFFFF742FFFFF754FE3A
:10058000FFE740F26400C2F20000006840F2680138
:10059000C2F200010968401A642829D3FFE740F23B
:1005A0006C00C2F20000027801219143017040F218
:1005B0006401C2F20001096840F26802C2F200025E
:1005C00011600078C00748B1FFE741F21001C4F2A2
:1005D0000101086840F40050086008E041F2100191
:1005E000C4F20101086840F000500860FFE7FFE72F
:1005F000C7E70000040600080000002070060000A5
:0406000028010008C5
:040000050800016D81
:00000001FF
