S015000041746D656761385F736C6565702E7372656310
S113000012C019C019C017C016C015C014C013C03F
S113001012C011C010C00FC00EC00DC00CC00BC068
S11300200AC009C008C011241FBECFE5D4E0DEBF5A
S1130030CDBF1AD027C0E4CF1F920F920FB60F92F4
S113004011240F900FBE0F901F90189594E621E095
S113005088B3822788BBE7EAF1E63197F1F700C05D
S113006000009150A9F7089585B7806885BF85B7CA
S1130070806285BF8BB780688BBFB89A7894E6DFBF
S10B00808895FDCFF894FFCF31
S9030000FC
