:100000000C943C000C944E000C944E000C944E004A
:100010000C944E000C944E000C944E000C944E0028
:100020000C944E000C944E000C944E000C944E0018
:100030000C944E000C944E000C944E000C944E0008
:100040000C9450000C944E000C944E000C944E00F6
:100050000C944E000C944E000C944E000C944E00E8
:100060000C944E000C944E000C9400000C94000074
:100070000C9400000C94000011241FBECFEFD8E0B8
:10008000DEBFCDBF21E0A0E0B1E001C01D92A930EC
:10009000B207E1F70E9496000C9425010C94000031
:1000A0001F920F920FB60F9211242F933F938F93AD
:1000B0009F93AF93BF938091050190910601A0910A
:1000C0000701B09108013091040120E4230F2D377E
:1000D00028F023EC230F0196A11DB11D20930401EC
:1000E0008093050190930601A0930701B093080146
:1000F0008091000190910101A0910201B091030152
:100100000196A11DB11D8093000190930101A09360
:100110000201B0930301BF91AF919F918F913F91E5
:100120002F910F900FBE0F901F9018958091F200A5
:1001300080618EBB80E88093F2009EB39093F200C2
:100140008093610091E0909361009091F2009F791B
:100150009EBB8093F2009EB39093F2009091F200C8
:100160009B7F9EBB8093F2009EB39093F20080939E
:10017000610010926100789484B5826084BD84B57A
:10018000816084BD85B5826085BD85B5816085BD92
:1001900080916E00816080936E001092810080914A
:1001A00081008260809381008091810081608093D2
:1001B0008100809180008160809380008091B100F7
:1001C00084608093B1008091B00081608093B00022
:1001D0008091910082608093910080919100816074
:1001E0008093910080919000816080939000809135
:1001F0007A00846080937A0080917A008D7F80936A
:100200007A0080917A008E7F80937A0080917A00C4
:10021000806880937A001092C1000FEF04B90095B6
:1002200005B90E941401FBCF14E62FEF3FEF3A957A
:10023000F1F72A95D9F71A95C1F70895C0E0D0E0F3
:0E0240002097F1F30E940000FBCFF894FFCF4F
:00000001FF
