:100000000C9484020C94AC020C94AC020C94AC02E0
:100010000C94AC020C94AC020C94AC020C94AC02A8
:100020000C94AC020C94AC020C94AC020C94AC0298
:100030000C94AC020C94AC020C94AC020C94AC0288
:100040000C94021C0C94AC020C94721C0C944C1C6E
:100050000C94AC020C94AC020C94AC020C94AC0268
:100060000C94AC020C94AC020000000002000100F1
:100070000001050200FC010003020400FC0200056F
:10008000050600FC060003060400FC090003050445
:1000900000FC0B0004050500FC0E0001020200FC40
:1000A0000F0002050300FC110002050300FC130011
:1000B00003030400FD150003030400FD1700020202
:1000C000030000180003010400FE190001010200F2
:1000D000001A0003050400FC1C0003050400FC1EBC
:1000E0000002050300FC200003050400FC220003BD
:1000F000050400FC240003050400FC26000305049D
:1001000000FC280003050400FC2A0003050400FC91
:100110002C0003050400FC2E0003050400FC300045
:1001200001030200FD310002040300FD320002035E
:100130000300FD330003030400FD35000203030048
:10014000FD360003050400FC380003050400FC3AFA
:100150000003050400FC3C0003050400FC3E000312
:10016000050400FC400003050400FC4200030504F4
:1001700000FC440003050400FC460003050400FCE9
:10018000480003050400FC4A0001050200FC4B0086
:1001900003050400FC4D0003050400FC4F000305AB
:1001A0000400FC510005050600FC5500040505008F
:1001B000FC580003050400FC5A0003050400FC5C25
:1001C0000003060400FC5F0003050400FC6100035B
:1001D000050400FC630003050400FC65000305043E
:1001E00000FC670003050400FC690005050600FC2F
:1001F0006D0003050400FC6F0003050400FC7100A2
:1002000003050400FC730002050300FC75000305F0
:100210000400FC770002050300FC790003020400DF
:10022000FC7A0004010400017B0002020300FC7C54
:100230000003040400FD7E0003050400FC800003AD
:10024000030400FE820003050400FC840003040490
:1002500000FD860002050300FC880003050400FD84
:100260008A0003050400FC8C0001050200FC8D00DF
:1002700002060300FC8F0003050400FC9100020548
:100280000300FC930005030600FE95000303040031
:10029000FE970003030400FE990003040400FE9B84
:1002A0000003040400FE9D0002030300FE9E000301
:1002B000040400FDA00002050300FCA200030304E7
:1002C00000FEA40003030400FEA60005030600FED2
:1002D000A80003030400FEAA0003040400FEAC000F
:1002E00003040400FDAE0003050400FCB000010699
:1002F0000200FCB10003050400FCB3000402050089
:10030000FDE8B457D5F5004E3E80A54A4A5A50C084
:100310006A409580AA805D0060E080254856D475CB
:1003200040C54EC51C9792F31C5354E5485554558F
:1003300094A04664E38098C50456C657DAD75C7229
:1003400046D6DCF3CEF34872D4B7DAF824D4BB5ADD
:10035000924E8EEB58809DB99056D4D74856D440D3
:10036000D75A711CE924B6D4B6A48C6B5500B55A83
:10037000B524E54EEAC09112D5C054F090C7F09371
:100380005E718025DE5E306E80779C935AB8456042
:1003900092EAAA40D56AD6805500D7407590E87198
:1003A000E0BA40B580B5008D54AA80ACE0E5706A33
:1003B00026FCC8AC5A0103680020007E0007E50057
:1003C000008000000100010000010200000703009E
:1003D00030100400000008000202090000000A00BA
:1003E00000000C0000000D0000000F0000001000D5
:1003F0000000110007001200000013000000FFFFC2
:1004000032001000B01711000700FFFF0A001200B1
:100410003A01FFFF0A001300001A29000C00FFFF39
:100420000A003000000031000505320004003500EC
:1004300006003600070737000501380002003900C2
:1004400007073C0004073D0007085000000051006A
:10045000EF005200000053003F01600000A7610060
:1004600001006A0000002100000020000000800060
:100470000000810000008200000083000000840072
:100480000000850000009000100092000000930022
:10049000030095001001970000009800000007007D
:1004A0007301FFFF320000000000240027002A0033
:1004B0000000000800020100000304070000000023
:1004C0000000000000000000250028002B000102B1
:1004D00004081020408001020408102001020408D2
:1004E00010200404040404040404020202020202B0
:1004F0000303030303037C3C3E5E2B3D3F2F5B5D08
:100500003B2C2A225C00A41C11241FBECFEFD8E094
:10051000DEBFCDBF11E0A0E0B1E0EEEFFDE402C030
:1005200005900D92A436B107D9F724E0A4E6B1E016
:1005300001C01D92A239B207E1F712E0C4E8D2E08F
:1005400004C02197FE010E94A625C338D107C9F730
:100550000E94041D0C94FD260C94000090E0FC0108
:10056000E055FB4F2491FC01E253FB4F3491FC0119
:10057000EE51FB4FE491EE23C9F0222339F02330F2
:1005800001F1A8F4213019F1223029F1F0E0EE0F49
:10059000FF1FEC53FB4FA591B4918FB7F894EC91EA
:1005A000611126C030953E233C938FBF08952730BC
:1005B000A9F02830C9F0243049F7809180008F7D60
:1005C00003C0809180008F7780938000DFCF84B557
:1005D0008F7784BDDBCF84B58F7DFBCF8091B0005A
:1005E0008F778093B000D2CF8091B0008F7DF9CF0C
:1005F0003E2BDACFCF93DF9390E0FC01E253FB4F29
:1006000024918E519B4FFC0184918823D1F090E07E
:10061000880F991FFC01EA55FB4FA591B491FC018D
:10062000EC53FB4FC591D49161110EC09FB7F89464
:100630008C91E22FE0958E238C932881E223E8832E
:100640009FBFDF91CF9108958FB7F894EC91E22B83
:10065000EC938FBFF6CF8E3008F08E508770806499
:1006600080937C0080917A00806480937A008091EE
:100670007A0086FDFCCF80917800909179000895F2
:100680002F923F924F925F926F927F928F929F92A2
:10069000AF92BF92CF92DF92EF92FF920F931F9390
:1006A000CF93DF93CDB7DEB728970FB6F894DEBFB0
:1006B0000FBECDBF60918B0470E0FB01EE51FB4F8C
:1006C000E49080918804A82FB0E0FD01EE51FB4F2B
:1006D000049140918A0450E0FA01EE51FB4FC4901E
:1006E0002091890430E0F901EE51FB4F4490FB0169
:1006F000E253FB4F2490FD01E253FB4F9490FA012B
:10070000E253FB4FD490F901E253FB4F94919F8346
:1007100060E00E94FA0260E0809189040E94FA027F
:1007200010E0000F111F0C531B4FF801A591B4915D
:100730008C91992D9095988789238C93512C440CFA
:10074000551CC2018C539B4F2C01FC01A591B49107
:100750009C918F81809589238C9361E080918B049B
:100760000E94FA0261E080918A040E94FA02F12C50
:10077000EE0CFF1CC7018C539B4F7C01FC01A59123
:10078000B4918C9182298C93EC2DF0E0EE0FFF1F39
:10079000EC53FB4FA591B491EC91D094DE22DC9206
:1007A000809188040E942B033C01809188040E9460
:1007B0002B035C012FEF33E06901C81AD90A60E00E
:1007C00080918B040E94FA0260E080918A040E946A
:1007D000FA02F701A591B4918C91209482218C9317
:1007E00061E0809188040E94FA02F801A591B49119
:1007F000EC919E2A9C9261E0809189040E94FA0209
:1008000080918A040E942B034C0180918A040E94EB
:100810002B038816990629F4332433946A147B0435
:1008200009F0312CAA24AA9423E0B22E4501881A9B
:10083000990A61E080918B040E94FA02F701A59168
:10084000B491EC912E222C92F201A591B491EC91ED
:100850009F81E92BEC93F801A591B4918C91988537
:1008600089238C9360E0809188040E94FA02809131
:100870008A040E942B038C01809188040E942B0320
:10088000BC01E0908C04F0908D04E114F10409F4B3
:1008900064C0072E000C880B990B0E949E242B012C
:1008A0003C01B801110F880B990B0E949E249B01FB
:1008B000AC01C301B2010E94F42320E030E040E823
:1008C0005FE30E9487232B013C01B6010D2C000C35
:1008D000880B990B0E949E24A30192010E942A2555
:1008E0002B013C01B70190E080E00E949C24A30111
:1008F00092010E942A2520E030E040E85AE30E945D
:100900002A250E946624311002C070E060E0DA827D
:10091000C9829C828B827E836D832C2D3A81482DE7
:100920005C817E8180E090E028960FB6F894DEBF6F
:100930000FBECDBFDF91CF911F910F91FF90EF9030
:10094000DF90CF90BF90AF909F908F907F906F90EF
:100950005F904F903F902F900895601B710BC501E1
:10096000861B970BBC01CFCF3FB7F89480918C01C9
:1009700090918D01A0918E01B0918F0126B5A89B19
:1009800005C02F3F19F00196A11DB11D3FBFBA2F21
:10099000A92F982F8827BC01CD01620F711D811DE1
:1009A000911D42E0660F771F881F991F4A95D1F766
:1009B00008958F929F92AF92BF92CF92DF92EF9263
:1009C000FF926B017C010E94B4044B015C01C114D5
:1009D000D104E104F104B9F00E94B4046819790962
:1009E0008A099B09683E73408105910580F321E0E7
:1009F000C21AD108E108F10888EE880E83E0981E3B
:100A0000A11CB11CE4CFFF90EF90DF90CF90BF907E
:100A1000AF909F908F9008952FB7F89460918801C0
:100A20007091890180918A0190918B012FBF089567
:100A3000AF92BF92CF92DF92EF92FF920F931F93EC
:100A4000CF93DF936C017B018B01040F151FEB012A
:100A50005E01AE18BF08C017D10759F06991D601E1
:100A6000ED91FC910190F081E02DC6010995892B53
:100A700079F7C501DF91CF911F910F91FF90EF9012
:100A8000DF90CF90BF90AF900895FC01538D448DBF
:100A9000252F30E0842F90E0821B930B541710F029
:100AA000CF96089501970895FC01918D828D981736
:100AB00061F0A28DAE0FBF2FB11D5D968C91928D0E
:100AC0009F5F9F73928F90E008958FEF9FEF08953F
:100AD000FC01918D828D981731F0828DE80FF11D08
:100AE000858D90E008958FEF9FEF0895FC01918D23
:100AF000228D892F90E0805C9F4F821B91098F731C
:100B00009927089588E993E00E94760521E0892BD2
:100B100009F420E0822F089580E090E0892B29F0ED
:100B20000E94820581110C9400000895FC01A48D9F
:100B3000A80FB92FB11DA35ABF4F2C91848D90E0FF
:100B400001968F739927848FA689B7892C93A089E2
:100B5000B1898C91837080648C93938D848D98136C
:100B600006C00288F389E02D80818F7D80830895FF
:100B7000EF92FF920F931F93CF93DF93EC0181E0ED
:100B8000888F9B8D8C8D98131AC0E889F989808194
:100B900085FF15C09FB7F894EE89FF896083E889C7
:100BA000F98980818370806480839FBF81E090E0B9
:100BB000DF91CF911F910F91FF90EF900895F62E46
:100BC0000B8D10E00F5F1F4F0F731127E02E8C8DE0
:100BD0008E110CC00FB607FCFACFE889F989808125
:100BE00085FFF5CFCE010E949605F1CFEB8DEC0F7E
:100BF000FD2FF11DE35AFF4FF0829FB7F8940B8F42
:100C0000EA89FB8980818062CFCFCF93DF93EC01AB
:100C1000888D8823B9F0AA89BB89E889F9898C91E4
:100C200085FD03C0808186FD0DC00FB607FCF7CFA0
:100C30008C9185FFF2CF808185FFEDCFCE010E94A0
:100C40009605E9CFDF91CF9108958FB7F894809101
:100C500069018FBF089561E0FC0184810E94AE02AA
:100C60008091680181111092680108958EBD000085
:100C70000DB407FEFDCF8EB508958FEF0C943606A8
:100C80000F931F93CF93DF93EC010E940C058B0110
:100C90000E943D068F3F69F00E940C05601B710B9E
:100CA0006C177D07A8F380E0DF91CF911F910F9122
:100CB000089581E0F9CF8CBD9DBD0895CF93DF935A
:100CC000EC0180916801811109C081E08093680185
:100CD00080913504909136040E945B0660E08C811F
:100CE000DF91CF910C94AE028F929F92AF92BF9200
:100CF000FF920F931F93CF93DF93EC01F62E4901E0
:100D00005A018E81882389F08F8198859C012F5FFD
:100D10003F4F38872F838230924018F40E943D065F
:100D2000F3CFCE010E942B061E82CE010E945E06EA
:100D30008CE291E00E9440068F2D80640E9436066E
:100D400008E110E0D501C401002E04C0B695A795B6
:100D5000979587950A94D2F70E9436060850110994
:100D6000083F8FEF180771F785E9FF2021F028E091
:100D700087E8F2128FEF0E94360610E00E943D06CF
:100D80008A8787FF04C01F3F11F01F5FF7CFDF91F5
:100D9000CF911F910F91FF90BF90AF909F908F9038
:100DA0000895AF92BF92CF92DF92EF92FF920F938E
:100DB0001F93CF93DF93EC016901C801820F931F4A
:100DC0008130924050F58E81882379F08881998115
:100DD000AA81BB8184179507A607B70731F48F81D5
:100DE0009885C816D90608F042C0488359836A839B
:100DF0007B838B85833039F089E0440F551F661F54
:100E0000771F8A95D1F79A01AB0161E1CE010E946B
:100E10007406882389F083E08D83CE010E942B061F
:100E200080E0DF91CF911F910F91FF90EF90DF90C5
:100E3000CF90BF90AF9008950E940C055B010E9477
:100E40003D068A878F3F69F40E940C056A197B0969
:100E50006D327140A0F38FE08D83CE010E942B068E
:100E6000DCCF8E3F89F418861F8281E08E838F81CC
:100E700098858C159D0550F40E943D068F819885BC
:100E8000019698878F83F3CF8DE0E6CF6701E00E60
:100E9000F11E0E943D06F60181936F01EE15FF05DC
:100EA000C1F78F819885080F191F18870F838985CF
:100EB000882319F001151240A0F08E81882389F053
:100EC0008F8198859C012F5F3F4F38872F83823019
:100ED000924018F40E943D06F3CFCE010E942B06EB
:100EE0001E8281E09ECFCF92DF92EF92FF920F930E
:100EF000CF93DF93EC01690182E141155105610552
:100F0000710599F08B85833039F089E0440F551FC6
:100F1000661F771F8A95D1F79A01AB0168E1CE0170
:100F20000E947406882319F084E08D832DC08EEF13
:100F30000E94360676018EEFD81AF70181917F0163
:100F40000E943606EC14FD04C1F78FEF0E943606AE
:100F50008FEF0E9436060E943D068A878F7185308A
:100F600071F4011116C0CE010E942B0681E0DF91C1
:100F7000CF910F91FF90EF90DF90CF90089581E196
:100F80008D83CE010E942B06CE010E942B0680E0AD
:100F9000EECF88E592E00E944006811102C085E113
:100FA000C4CF20E030E0A9016DE0CE010E947406BC
:100FB000882311F084E1B9CF0E943D068111FACF58
:100FC000D2CF0F9340916A0150916B0160916C01F7
:100FD00070916D01411551056105710599F0082F5A
:100FE00024E931E080919001909191010E94730772
:100FF000882349F010926A0110926B0110926C01E3
:1010000010926D0181E00F9108950F93CF93C82F37
:1010100080919301811105C0C1E08C2FCF910F9178
:101020000895409100015091010160910201709179
:1010300003010C2F24E931E08091900190919101FE
:101040000E947307811102C0C0E0E7CFCC2321F3D7
:1010500081E00E94E1078823B9F310929301DDCF6C
:101060008F929F92AF92BF92EF92FF920F931F9336
:10107000CF934B015C01C42F80910001909101013D
:10108000A0910201B091030188159905AA05BB053D
:1010900051F181E00E94050881110BC080E0CF91E1
:1010A0001F910F91FF90EF90BF90AF909F908F9006
:1010B000089584E9E82E81E0F82E00E012E030E0A7
:1010C00020E0B501A40180919001909191010E94CE
:1010D000D106882319F38092000190920101A09219
:1010E0000201B0920301409193014C2B4093930174
:1010F00081E0D5CF8F929F92AF92BF92CF92DF9235
:10110000EF92FF92CF9327E334E030939101209345
:101110009001882309F46DC040E060E070E0CB01ED
:101120000E94300881110BC080E0CF91FF90EF90BA
:10113000DF90CF90BF90AF909F908F900895809157
:1011400052038F7789F780915E0390915F03A0919E
:101150006003B091610384369105A105B10520F3C8
:10116000C0905A03D0905B03E0905C03F0905D0365
:10117000C114D104E104F104B9F240E0C701B601A1
:101180000E943008882381F280919F019091A001F4
:101190008115924049F6A091A401AA2329F26091F9
:1011A000A2017091A3016115710509F4BDCF2091D1
:1011B000A101222309F4B8CFA0935504209347043A
:1011C00090E080E030E0E1E0F0E0C82FAF01082ED1
:1011D00002C0440F551F0A94E2F72417350769F03F
:1011E00041E0480F01968930910579F7409350040A
:1011F0009BCFC12CD12C7601C0CF8093500420917D
:10120000AA013091AB0150E040E02115310541F4D5
:101210002091B8013091B9014091BA015091BB01C0
:10122000209348043093490440934A0450934B045C
:1012300046015701860E971EA11CB11C80925604D0
:1012400090925704A0925804B0925904E091A501DD
:10125000F091A601F0935C04E0935B04B0E00E947F
:101260004B23DC01CB01880D991DAA1DBB1D80936A
:101270005D0490935E04A0935F04B093600425E046
:10128000EE0FFF1F2A95E1F7E150FE4FEF2FFF27EA
:10129000E6958E0F9F1FA11DB11D80935104909361
:1012A0005204A0935304B09354048090A7019090EB
:1012B000A801B12CA12C8114910441F48090B401B7
:1012C0009090B501A090B601B090B701C81AD90AA4
:1012D000EA0AFB0AC80CD91CEA1CFB1C04C0F694E1
:1012E000E794D794C794CA95D2F7C0924C04D09291
:1012F0004D04E0924E04F0924F0485EFC8168FE043
:10130000D806E104F10428F48CE080935A0481E0CB
:101310000CCF80E125EFC2162FEFD206E104F104D5
:10132000A0F38091C0019091C101A091C201B09140
:10133000C30180935D0490935E04A0935F04B09317
:10134000600480E2E2CF4F925F926F927F928F9221
:101350009F92AF92BF92CF92DF92EF92FF920F9344
:101360001F93CF93DF93EC01423051056105710566
:1013700090F480E0DF91CF911F910F91FF90EF905B
:10138000DF90CF90BF90AF909F908F907F906F90A5
:101390005F904F90089589859A85AB85BC850196AD
:1013A000A11DB11D84179507A607B70710F3CB88B9
:1013B000DC88ED88FE888F89803109F042C0BB2728
:1013C000A72F962F852F480159012A013B01C80EEE
:1013D000D91EEA1EFB1E8091000190910101A0918F
:1013E0000201B0910301C816D906EA06FB0699F579
:1013F0008F898031C1F5B301A20155276627772770
:10140000440F551F4C565E4FFA01918280828091A5
:1014100093018160809393018A89823080F08D816D
:101420009E81AF81B8858C0D9D1DAE1DBF1D809323
:101430006A0190936B01A0936C01B0936D0181E000
:1014400099CFDB01CA01E7E0B695A79597958795F7
:10145000EA95D1F7B8CF40E0C701B6010E94300845
:101460008111C6CF86CFB301A2014F7755276627DA
:101470007727440F551F440F551F4C565E4FFA01F6
:1014800080829182A282B382C2CF8F929F92AF92CA
:10149000BF92CF92DF92EF92FF920F931F93CF9361
:1014A000DF93FC0181859285A385B4850196A11DFA
:1014B000B11D84179507A607B70770F480E0DF9188
:1014C000CF911F910F91FF90EF90DF90CF90BF9041
:1014D000AF909F908F90089583889488A588B68850
:1014E0008789803189F5BB27A72F962F852FE901A2
:1014F0006A017B018F01BC01CD01680D791D8A1D38
:101500009B1D8090000190900101A0900201B0907D
:10151000030186169706A806B90601F5F801878922
:10152000803111F5DD24EE24FF24F601EE0FFF1FBC
:10153000EC56FE4F80819181B0E0A0E088839983D2
:10154000AA83BB8381E0BBCFDB01CA01C7E0B695AC
:10155000A79597958795CA95D1F7C9CF40E00E9486
:1015600030088111DBCFAACFE894C7F8DD24EE2440
:10157000FF24F601EE0FFF1FEE0FFF1FEC56FE4F8C
:1015800080819181A281B381BF70D8CF4F925F9249
:101590006F927F92AF92BF92CF92DF92EF92FF92C3
:1015A0000F931F93CF93DF9300D000D0CDB7DEB75A
:1015B0008C0149835A836B837C835901C12CD12CC4
:1015C0007601412C82E0582E612C712C49815A8180
:1015D0006B817C819E012F5F3F4FC8010E94450AAD
:1015E000882339F1F8018585A301920104C0220FF7
:1015F000331F441F551F8A95D2F7DA01C901C80E5F
:10160000D91EEA1EFB1E49815A816B817C81878924
:10161000803111F188EF9FEFAFEFBFE04817590716
:101620006A077B0798F2F501C082D182E282F382D9
:1016300081E00F900F900F900F90DF91CF911F914D
:101640000F91FF90EF90DF90CF90BF90AF907F9081
:101650006F905F904F90089588EF9FEFA0E0B0E00B
:10166000DDCFCF93DF93FC012581222321F080E0A1
:10167000DF91CF910895EC0180915A04803159F5A2
:1016800082E08583178A108E118E128E80915B0402
:1016900090915C04B0E0A0E025E0880F991FAA1F9C
:1016A000BB1F2A95D1F7838B948BA58BB68B83E4D4
:1016B00094E09C8F8B8F81E08C831E821F82188622
:1016C00019861A861B861C861D861E861F86188A0A
:1016D000198A1A8ACDCF803251F683E085834091F2
:1016E0005D0450915E0460915F0470916004478BCB
:1016F000508F618F728F9F012D5E3F4F83E494E086
:101700000E94C60A8111D3CFB2CF8F929F92AF921F
:10171000BF92CF92DF92EF92FF920F931F93CF93DE
:10172000DF93EC018D8181110EC080E0DF91CF91BC
:101730001F910F91FF90EF90DF90CF90BF90AF90EF
:101740009F908F9008950B891C892D893E890417DD
:1017500015072607370748F34A015B01823031F449
:101760008A869B86AC86BD8681E0E0CF8114910499
:10177000A104B10449F41E821F82188619861A86B4
:101780001B861C861D86F0CF0A851B852C853D8512
:10179000EB8DFC8D858590E00996B901A80141503B
:1017A000510961097109082E04C07695679557950E
:1017B00047950A94D2F775016401E1E0CE1AD10889
:1017C000E108F10804C0F694E794D794C7948A9589
:1017D000D2F7C416D506E606F70620F0012B022B39
:1017E000032B11F58F89988DA98DBA8D8E839F83D8
:1017F000A887B9878E010A5F1F4FC114D104E10485
:10180000F10409F4ADCF4E815F8168857985980137
:101810008B8D9C8D0E94450A91E0C91AD108E10880
:10182000F1088111EACF81CFC41AD50AE60AF70A76
:10183000E1CF3F924F925F926F927F928F929F92F1
:10184000AF92BF92CF92DF92EF92FF920F931F93CE
:10185000CF93DF93CDB7DEB72C970FB6F894DEBFEA
:101860000FBECDBF5C01DC015B968D909C905C97B8
:1018700016964D905D906D907C901997411451048F
:101880006104710409F468C0BFEF4B1A5B0A6B0A6C
:101890007B0A312CF40181859285A385B4859C0156
:1018A000AD012F5F3F4F4F4F5F4F29873A874B87DF
:1018B0005C87730162011D821E821F821886F401FB
:1018C00081859285A385B4852D813E814F81588580
:1018D000281739074A075B0708F056C089859A859B
:1018E000AB85BC858C159D05AE05BF0550F482E027
:1018F000C82ED12CE12CF12C92E0492E512C612CD8
:10190000712C9E012F5F3F4FB701A601C4010E94B9
:10191000450A8823C9F189819A81AB81BC81892BD1
:101920008A2B8B2B09F1260137019FEF491A590A9F
:10193000690A790A2D813E814F8158852F5F3F4F7B
:101940004F4F5F4F2D833E834F8358873FEFC31A1E
:10195000D30AE30AF30AB3CFF401408051806280D6
:1019600073803324339496CFC414D504E604F7046B
:1019700009F70FEF1FEF2FEF3FE0B701A601C401FA
:101980000E94A309811119C080E02C960FB6F8942B
:10199000DEBF0FBECDBFDF91CF911F910F91FF90A2
:1019A000EF90DF90CF90BF90AF909F908F907F90FF
:1019B0006F905F904F903F900895D50116964D918E
:1019C0005D916D917C9119974115510561057105E6
:1019D00039F097018601C4010E94A3098823A1F26E
:1019E000D5011696CD92DD92ED92FC921997332097
:1019F00051F0D701C6010196A11DB11DF4018083EC
:101A00009183A283B383F5018789908DA18DB28DD7
:101A1000892B8A2B8B2B39F48481C78AD08EE18E57
:101A2000F28E80688483F50184818062848381E002
:101A3000ACCF2F923F924F925F926F927F928F9294
:101A40009F92AF92BF92CF92DF92EF92FF920F934D
:101A50001F93CF93DF93EC015B012A018D818111EC
:101A600015C08FEF9FEFDF91CF911F910F91FF90E6
:101A7000EF90DF90CF90BF90AF909F908F907F902E
:101A80006F905F904F903F902F9008958C8180FFD2
:101A9000E8CF0B891C892D893E894A855B856C8539
:101AA0007D85C201B0E0A0E068017901C41AD50AC1
:101AB000E60AF70AC816D906EA06FB0618F4280152
:101AC000441A550A42011E0126E0220E311C8114DF
:101AD000910409F4B3C04A855B856C857D856A01F4
:101AE00081E0D8228B8D9C8D8A019B01E9E036959F
:101AF000279517950795EA95D1F7ED81E230E1F545
:101B0000FC01628D738D848D958D600F711F821F16
:101B1000931F612C22E0722E6C187D0886149704A6
:101B200008F434012C8126FD04C06114F2E07F0624
:101B300071F4009100011091010120910201309196
:101B40000301061717072807390709F053C040E0BB
:101B50000E943008882309F484CFC6018C569E4F1A
:101B6000D5019C01260D371DFC012E173F0709F4F6
:101B700060C041914D93F9CFFC0174807A9470223A
:101B8000C114D10471F471100CC0452B462B472BA6
:101B900039F58F89988DA98DBA8D8E839F83A887FB
:101BA000B987EB8DFC8D6E817F8188859985625028
:101BB000710981099109258504C0660F771F881F67
:101BC000991F2A95D2F70685178520893189600FDC
:101BD000711F821F931F670D711D811D911D99CF6C
:101BE0004E815F816885798591010E94450A811146
:101BF000D8CF37CF750183019601AB01BC0180912D
:101C00009001909191010E94D106882309F429CF77
:101C1000A60CB71C8A859B85AC85BD85860D971D56
:101C2000A11DB11D8A879B87AC87BD878618970841
:101C30004ECF281B390BA20EB31EECCFC20113CF1F
:101C40001F93CF93DF93FC0125812223D1F1162F1F
:101C5000EC01848187FF2AC0668577858089918918
:101C600041E00E943008882361F1EA8980E2E89F20
:101C7000F0011124EC56FE4F309719F18D8182301E
:101C800040F48B899C89AD89BE89848F958FA68FFE
:101C9000B78F8F89988D938F828F8F89988DA98D1B
:101CA000BA8DB58BA48B8C818F778C83111103C077
:101CB0008C818F7E8C83812FDF91CF911F910C942B
:101CC000050880E0DF91CF911F910895FF920F9357
:101CD0001F93CF93DF93EC018D81813041F090E031
:101CE00080E0DF91CF911F910F91FF9008958C813B
:101CF00081FFF5CF82FD1BC00091900110919101F1
:101D0000C8010E945E060E943D06F82EC8010E948E
:101D10002B068FEFF812E3CF8C8185FF1BC060E0AC
:101D2000CE010E94200E8C818F7D8C83D8CF4B8971
:101D30005C896D897E898A859B85AC85BD85841784
:101D40009507A607B707C1F2CE010E94850B811146
:101D5000D3CFC5CF40916A0150916B0160916C0166
:101D600070916D01452B462B472B21F080E00E949E
:101D7000E107B5CF80618C832A853B85317080E097
:101D800092E0821B930BADCFCF93DF93EC0161E028
:101D90000E94200E882311F01D8281E0DF91CF91F7
:101DA00008952F923F924F925F926F927F928F92FF
:101DB0009F92AF92BF92CF92DF92EF92FF920F93DA
:101DC0001F93CF93DF9300D000D01F92CDB7DEB723
:101DD0007C015B01342E5D83DC0115968C91159797
:101DE000813009F0CEC014962C9021FECAC022FC8E
:101DF000B4C0C32CDD8022947FE027222094B22D32
:101E0000B1702B2ED7011A964D915D916D917C91F9
:101E10001D97C114D10409F428C15B968D919C9142
:101E20005C97FC0174807A948A019B0169E0369585
:101E30002795179507956A95D1F770228A01117039
:101E4000711020C001151105E9F416964D915D91B0
:101E50006D917C911997411551056105710509F046
:101E600099C057968D919D910D90BC91A02D009792
:101E7000A105B10509F0B0C0C7010E94190C882363
:101E800009F47FC080E092E0801B910B46018C1525
:101E90009D0508F44C01D7015B964D915C915C97D0
:101EA00016968D919D910D90BC91A02D0297A10940
:101EB000B109FA01258504C0880F991FAA1FBB1F0D
:101EC0002A95D2F74685578560897189840F951FB9
:101ED000A61FB71F9C01AD01270D311D411D511DCE
:101EE00029013A01811432E0930609F07BC0809108
:101EF000000190910101A0910201B09103018415AC
:101F00009505A605B70559F48FEF9FEFDC01809387
:101F1000000190930101A0930201B0930301022DEF
:101F20009501B301A20180919001909191010E94CD
:101F30007307882331F19EEFB91AC818D908F70141
:101F400082859385A485B585880D991DA11DB11D38
:101F500082879387A487B58755CFF7014389548932
:101F60006589768982859385A485B5854817590743
:101F70006A077B0709F43DCFC7010E94850B8111D9
:101F800038CF81E090E0D70113969C938E931297FF
:101F900080E007C09E012F5F3F4F0E94450A8111DC
:101FA00002C090E079C089819A81AB81BC81F70140
:101FB000238D348DF901278948EF5FEF60E070E0F1
:101FC000203121F048EF5FEF6FEF7FE08417950736
:101FD000A607B70708F050CFF70186839783A0873D
:101FE000B18750CF0115110599F5D7011A964D917A
:101FF0005D916D917C911D9753968D919D910D9062
:10200000BC91A02D481759076A077B0708F181E0AA
:102010000E940508882309F4B4CF40920001509231
:10202000010160920201709203018091930181602D
:1020300080939301C8018C569E4FD5019C01280DB9
:10204000391DFC012E173F0759F04D914193FACFEE
:1020500041E0C301B2010E9430088111EBCF91CF62
:10206000281B390BA20EB31E68CFF7018389948910
:10207000A589B68984179507A607B70738F4848120
:10208000438B548B658B768B80688483F7018481C6
:1020900083FD1AC0832D9D810F900F900F900F909C
:1020A0000F90DF91CF911F910F91FF90EF90DF90F4
:1020B000CF90BF90AF909F908F907F906F905F90E8
:1020C0004F903F902F90089561E0C7010E94200E2D
:1020D000882309F456CFDECFCF93DF931F92CDB77D
:1020E000DEB7698341E050E0BE016F5F7F4F0E9421
:1020F000D10E0F90DF91CF910895FC01DB01129674
:102100008D919C9113979383828382E391E09183D5
:10211000808314968C911497848315968C911597CF
:10212000858316964D915D916D917C9119974683AB
:102130005783608771871A964D915D916D917C915F
:102140001D9742875387648775871E964D915D91D1
:102150006D917C91519746875787608B718B529612
:102160008C915297828B53964D915D916D917C919C
:102170005697438B548B658B768B57964D915D911B
:102180006D917C915A97478B508F618F728F5B96C0
:102190008D919C91948F838F0895FC01818D928DF8
:1021A000009719F061E00C94200E0895DC01599617
:1021B000ED91FC913097B9F083899489A589B6890E
:1021C0004285538564857585841B950BA60BB70BDB
:1021D000811520E89207A105B10538F08FEF9FE740
:1021E000A0E0B0E0089590E080E00895DC01599609
:1021F0008D919C91009739F0DC01ED91FC91048068
:10220000F581E02D099490E080E00895CF93DF936D
:10221000EC01E98DFA8D309749F481E090E09B83E1
:102220008A8390E080E0DF91CF910895138212823B
:10223000898D9A8D0E94D10EE98DFA8D228133818C
:10224000232B59F7F0CFCF93DF931F92CDB7DEB793
:102250006983DC01ED91FC910280F381E02D41E086
:1022600050E0BE016F5F7F4F09950F90DF91CF91D6
:102270000895CF93DF931F92CDB7DEB741E050E0D2
:10228000BE016F5F7F4F0E94190D019731F4898164
:1022900090E00F90DF91CF9108958FEF9FEFF9CFEE
:1022A000FC01818D928D009711F00C9439118FEF04
:1022B0009FEF08950F931F93CF93DF93EC01898DC8
:1022C0009A8D10E000E0009799F00E9439118C017E
:1022D0000F3F100769F0898D9A8DFC014285538567
:1022E0006485758541505109610971090E94850B0A
:1022F000C801DF91CF911F910F9108950F931F9304
:10230000CF93DF9300D000D0CDB7DEB78C010E9411
:1023100050118983C8010E9450118A83C8010E940C
:1023200050118B83C8010E9450118C8369817A817E
:102330008B819C810F900F900F900F90DF91CF9128
:102340001F910F9108950F931F93CF93DF9300D0A8
:10235000CDB7DEB78C010E9450118983C8010E945D
:1023600050118A8389819A810F900F90DF91CF91CC
:102370001F910F910895CF93DF93EC01FB018281B0
:1023800093819B838A8384819581A681B7818C8385
:102390009D83AE83BF8380859185A285B385888721
:1023A0009987AA87BB878EE091E0998388838DE027
:1023B0003C96DE011C9601900D928A95E1F7FB0197
:1023C000818D928D9A8F898FDF91CF910895439857
:1023D0004423F9F0429850917601209177014BB156
:1023E0004F72322F307D432B4BB935B1307D2F7278
:1023F000322B35B94198419A3BB13F72252F207D50
:10240000322B3BB925B1207D5F72252B25B9419830
:10241000419A429AFC0161507109F0F0308181814A
:1024200032962BB12F72982F907D292B2BB995B115
:10243000907D8F72982B95B94198419A9BB19F726C
:10244000832F807D982B9BB985B1807D3F72832B34
:1024500085B94198419ADFCF439A089543984298AD
:102460002BB12F72392F307D232B2BB925B1207D35
:102470009F72922B95B94198419A9BB19F72282FD8
:10248000207D922B9BB995B1907D8F72892B85B958
:102490004198419A429A8BB18F72972F907D892BE8
:1024A0008BB985B1807D7F72782B75B94198419A3F
:1024B0008BB18F72962F907D892B8BB985B1807DE2
:1024C0006F72682B65B94198419A439A0895CF92EB
:1024D000DF92EF92FF920F931F93CF93DF938C01C4
:1024E000EB016A017901BC0180917A0190917B0135
:1024F0000E942E12BE0180917801909179010E9474
:102500002E12B80180917401909175010E942E12D3
:10251000BE0180917001909171010E942E12B6014E
:1025200080917201909173010E942E12B7018091E7
:102530006E0190916F01DF91CF911F910F91FF90EC
:10254000EF90DF90CF900C942E12CF92DF92EF920B
:10255000FF920F931F93CF93DF936C017B01C09188
:102560009603D091970300919403109195039E01D7
:1025700021503109A8014150510970E060E090E01C
:1025800080E00E94671243984298309176018091D2
:1025900077012BB12F72982F907D292B2BB995B1F4
:1025A000907D8F72982B95B94198419A9BB19F72FB
:1025B000832F807D982B9BB985B1807D3F72832BC3
:1025C00085B94198419A429A6D2D607D8D2D8F720B
:1025D0007C2D707D9C2D9F72219720F1A801E11424
:1025E000F10441F030E020E000002F5F3F4FE216A1
:1025F000F306D1F72BB12F72262B2BB925B1207DF5
:10260000282B25B94198419A2BB12F72272B2BB932
:1026100025B1207D292B25B94198419A4150510976
:10262000F1F6DACF439ADF91CF911F910F91FF908E
:10263000EF90DF90CF900895EF92FF920F931F934A
:10264000CF93DF9357FF05C0840F951F5195419598
:102650005109480F591F97FF02C090E080E0E091B8
:102660009403F0919503E417F50708F4AF01EA012C
:10267000C81BD90B37FF05C0620F731F3195219519
:102680003109260F371F77FF02C070E060E0E0914C
:102690009603F0919703E217F30708F49F0179017D
:1026A000E61AF70A21503109415051090E94671278
:1026B0004398429830917601809177012BB12F7227
:1026C000982F907D292B2BB995B1907D8F72982BE7
:1026D00095B94198419A9BB19F72832F807D982B29
:1026E0009BB985B1807D3F72832B85B94198419A12
:1026F000CE15DF052CF09E2D8F2D7E01C92FD82FF2
:10270000429A912F907D1F72402F407D0F721C16B0
:102710001D06D4F497018BB18F72892B8BB985B1CB
:10272000807D812B85B94198419A8BB18F72842B22
:102730008BB985B1807D802B85B94198419A215014
:10274000310949F72197E3CF439ADF91CF911F9148
:102750000F91FF90EF9008950F931F932091960390
:1027600030919703409194035091950310E000E05D
:1027700070E060E090E080E00E941C131F910F91D8
:1027800008950F931F93CF93DF9397FD2BC077FD91
:1027900029C020919403309195038217930710F577
:1027A000209196033091970362177307D8F48A013A
:1027B000EB01BC0180917A0190917B010E942E1265
:1027C000BE0180917801909179010E942E12B8018A
:1027D0008091760190917701DF91CF911F910F91B8
:1027E0000C942E12DF91CF911F910F9108952F928B
:1027F0003F924F925F926F927F928F929F92AF9291
:10280000BF92CF92DF92EF92FF920F931F93CF93DD
:10281000DF93CDB7DEB72A970FB6F894DEBF0FBEB1
:10282000CDBF3C01F30181913F01882309F4A3C08E
:102830008A3071F4109267011092660180916401F0
:102840009091650148969093650180936401EACF69
:102850008D3041F32090640130906501A0906601B5
:10286000B0906701E9EBF3E09491E7EBF3E0459179
:10287000559165917491891BF7E08F9FC0011124D8
:10288000840F951FE5EBF3E04591559165917491A7
:102890005C834B83FC01E590F490FC01329624911B
:1028A0002A8731964490329624913196E491912C66
:1028B000812C512C19868E2FEE0F990B9E838D83C0
:1028C000E22F220FFF0BF887EF83841408F04BC030
:1028D0002D813E81280D391DC901880F991F820F56
:1028E000931F9C01220D331D3A832983D12CC12CC7
:1028F000852D8C0D3A85C31680F5877049F4C70184
:102900000196EB81FC81EE0DFF1D249129877C014E
:10291000398537FF1BC08F8198858C199D099C01D3
:10292000220F331F820F931FE0919403F0919503C0
:10293000EA19FB090FEF1FEF23E030E043E050E01E
:1029400069817A818E0F9F1F0E941C138985880FD1
:1029500089879FEFC91AD90ACBCFEA855E0EFFEFB0
:102960008F1A9F0AB2CF22E1A20EB11CB09267016A
:10297000A092660157CF2A960FB6F894DEBF0FBE1D
:10298000CDBFDF91CF911F910F91FF90EF90DF901E
:10299000CF90BF90AF909F908F907F906F905F90FF
:1029A0004F903F902F9008958F929F92AF92BF9239
:1029B000CF92DF92EF92FF920F931F93CF93DF930B
:1029C0007C016B015A014901009194031091950318
:1029D000209196033091970321503109A80141506D
:1029E000510970E060E090E080E00E946712E7012A
:1029F000CE018E199F098A159B0554F4C017D10783
:102A000028F4A401B601CE010E94C1132196F0CF93
:102A1000DF91CF911F910F91FF90EF90DF90CF90BA
:102A2000BF90AF909F908F9008958F929F92AF929A
:102A3000BF92CF92DF92EF92FF920F931F93CF93AB
:102A4000DF936C017B015A014901009196031091BB
:102A500097039801215031094091940350919503B7
:102A60004150510970E060E090E080E00E94671200
:102A7000E701CE018E199F098A159B0554F4C017F2
:102A8000D10728F4A401BE01C6010E94C1132196FA
:102A9000F0CFDF91CF911F910F91FF90EF90DF90DA
:102AA000CF90BF90AF909F908F9008952FEF3FEF02
:102AB00048E250E060EA70E08AE590E00E94151577
:102AC0002FEF3FEF48E250E060EA70E085E990E0E8
:102AD0000E9415152FEF3FEF4CE350E060EA70E0E5
:102AE0008AE590E00E94D4142FEF3FEF4CE350E0D2
:102AF00067EC70E08AE590E00C94D4148F929F927A
:102B0000AF92BF92CF92DF92EF92FF920F931F93FB
:102B1000CF93DF937C01EB015A01690198010E9478
:102B200015159801A501BE01C70101960E94151552
:102B300047018C0C9D1C9801A501BE01C4010197A1
:102B40000E9415159801A501BE01C40102970E94BB
:102B500015159801A601BE01C7010E94D414BE013B
:102B60006F5F7F4F9801A601C7010E94D414CA0D60
:102B7000DB1DBE01615071099801A601C7010E94C9
:102B8000D414BE01625071099801A601C701DF91FA
:102B9000CF911F910F91FF90EF90DF90CF90BF905A
:102BA000AF909F908F900C94D4140F931F93CF935A
:102BB000DF930FEF1FEF2CE330E048E250E068E1D5
:102BC00071E090E080E00E947E158EEB90E09093A3
:102BD000670180936601C1E3D1E0D0936501C093A2
:102BE00064018AE391E00E94F71328E730E04EE1A8
:102BF00050E062E271E08CE390E00E947E1585E592
:102C000090E0909367018093660186E391E0909352
:102C10006501809364018EE391E00E94F7132CE339
:102C200030E048E250E068E171E084EB90E00E941F
:102C30007E158AE090E09093670180936601D093BF
:102C40006501C093640184E491E0DF91CF911F910D
:102C50000F910C94F713EF92FF920F931F93CF9362
:102C6000DF930E94AC130FEF1FEF2CE330E048E23C
:102C700050E060EA70E08AE590E00E947E1584E60C
:102C800090E0909367018093660189EB90E09093C8
:102C900065018093640188E491E00E94F7130E942B
:102CA0004003209380043093810440938204509326
:102CB0008304609384047093850461E080E10E9442
:102CC000FA0261E08FE00E94FA0261E086E00E9471
:102CD000FA0261E087E00E94FA02809184049091F8
:102CE00085044497853D9340D0F68091800490916F
:102CF0008104835C91408F3E910588F68091820427
:102D000090918304835C91408737910540F6C09190
:102D10009403D091950383E0D695C7958A95E1F702
:102D2000D0938601C09385010E94AC130E94D515F3
:102D30000FEF1FEF9E01AE0170E060E090E080E0D9
:102D40000E941C1300E018EF9E01AE0170E060E0ED
:102D5000CE010E941C137E01EE0CFF1C00E21DEF51
:102D60009E01AE0170E060E0C7010E941C1300EEFE
:102D70001FEF9E01AE0170E060E0C7018C0F9D1F48
:102D80000E941C1300EE17E09E01AE0170E060E0AF
:102D9000CE01880F991F880F991F0E941C130FEFF7
:102DA00017E09E01AE0170E060E085E0E82FEC9F47
:102DB000C001ED9F900D11240E941C130FE110E043
:102DC0009E01AE0170E060E086E0E82FEC9FC0015C
:102DD000ED9F900D11240E941C130FE118EF9E012E
:102DE000AE0170E060E087E0E82FEC9FC001ED9F4E
:102DF000900D11240E941C1310E000E09E01AE0112
:102E000070E060E090E080E00E947E158FEF9FEF21
:102E10009093840180938301DF91CF911F910F9153
:102E2000FF90EF900895089590E080E008950F934B
:102E30001F93CF93DF93EC0180E2689FF001112490
:102E4000EC56FE4F6A8B8091000190910101A09198
:102E50000201B09103018E879F87A88BB98B0489EB
:102E6000158930E020E09801112700270F8B188F7B
:102E7000298F3A8F828D938DB0E0A0E0AC01BD0127
:102E8000402B512B622B732B4F8B588F698F7A8F6E
:102E900083858871A9F4848D958DA68DB78D8B8BD4
:102EA0009C8BAD8BBE8B81E08D8381E08C831E82F9
:102EB0001F82188619861A861B861C861D8603C0EB
:102EC000803131F080E0DF91CF911F910F91089513
:102ED0009E012D5E3F4F8B8D9C8D0E94C60A8823DC
:102EE00089F384E0E1CFAF92BF92CF92DF92EF926D
:102EF000FF920F931F93CF93DF93CDB7DEB72B973E
:102F00000FB6F894DEBF0FBECDBF6C01FE01319647
:102F1000CE010C967F0120E22193E817F907E1F733
:102F2000DA0120E037E09D91B92E9923A9F19E3274
:102F3000B9F43A3091F480E02B960FB6F894DEBFE6
:102F40000FBECDBFDF91CF911F910F91FF90EF90FA
:102F5000DF90CF90BF90AF90089528E03AE0E3CFA4
:102F6000E6EFF4E08491882321F031969813FACFAC
:102F7000E2CF321700F38FED890F8E35E0F68FE93F
:102F8000890F8A3118F440EEB42EB90EF701E20F22
:102F9000F11DB0822F5FC7CF8981803261F28B0132
:102FA000FB01838D948DF601948F838FFB01168234
:102FB0001782108611861286138614861586F801EC
:102FC00082859385A485B5854389548965897689E9
:102FD00084179507A607B70708F0ADCF25E0B6958B
:102FE000A795979587952A95D1F7F82FFF70AF2E63
:102FF000F8018581823008F49ECFC8010E94391102
:1030000097FD99CFF80182859385A485B5854F9664
:10301000A11DB11D82879387A487B587F0E2AF9E7B
:10302000B00111246C567E4F6115710509F483CFF0
:10303000FB018081882309F1853E19F4B11032C06B
:103040001EC04BE050E0C7010E94D626892B09F034
:10305000B6CF6A2DC6012B960FB6F894DEBF0FBE11
:10306000CDBFDF91CF911F910F91FF90EF90DF9037
:10307000CF90BF90AF900C941717B1105CCFF601B2
:10308000A28A8091000190910101A0910201B0916A
:10309000030186879787A08BB18BFB0180818823F2
:1030A00009F449CFBB24B3948ACF0E94D126EF9272
:1030B000FF920F931F93CF93DF93EC017B018A0163
:1030C0001B821A8288EE93E0A0E0B0E08C839D839F
:1030D000AE83BF838EE091E0998388838DE190E099
:1030E0000E94AC259A8F898F009779F02DE1F70126
:1030F000DC0101900D922A95E1F74CE050E0B80117
:10310000CE010C960E94EE26188EDF91CF911F9172
:103110000F91FF90EF9008952F923F924F925F9200
:103120006F927F928F929F92AF92BF92CF92DF92D7
:10313000EF92FF920F931F93CF93DF93CDB7DEB73C
:10314000CB58D1400FB6F894DEBF0FBECDBF4C01B7
:10315000C959DE4F19821882C756D14088EE93E0D4
:10316000A0E0B0E0C759DE4F88839983AA83BB8370
:10317000C956D1408EE091E0CB59DE4F99838883C8
:10318000C556D140C258DE4F19821882CE57D14061
:10319000CF58DE4F1882C157D1400E940C05809154
:1031A000940390919503892B09F412C3809196039F
:1031B00090919703892B09F40BC3809192018CBDE8
:1031C0007E0105EBE00EF11CD70113961C921E92B6
:1031D000129782E391E011969C938E9315961C9220
:1031E0001C821B829A8389831E82C7010E94310B35
:1031F00054018E010F5F1F4F170128016FE270E02D
:10320000C5010E94E326009709F465C0F5012081FD
:103210002F3271F4FFEFAF1ABF0A902F812F810177
:10322000292E382E922D832D1801092F182FE6CF25
:103230008A198D3008F08CE0C82ED12CA601B5017A
:10324000CE01865B9E4F0E94EE26EAE4F1E0EC0F91
:10325000FD1FEC0DFD1D1082C8010E94C40ED80197
:1032600015968C91882341F1C15DDE4F1982188239
:10327000CF52D14082E391E0C35DDE4F99838883D2
:10328000CD52D140CE5CDE4F1882C253D140860C65
:10329000971CF4018081811128C0BE01635D7E4FBF
:1032A000C2010E947D104CE451E0B201CE01865B68
:1032B0009E4F0E94571851C0AE01465B5E4FB10150
:1032C000C8010E947317882379F2AC0CBD1CC101A0
:1032D0000E94C40EA7CF350168187908B101CE014C
:1032E000835D9E4F0E947D10D2CFD70113961C9212
:1032F0001E92129782E391E011969C938E931596FD
:103300001C92CE5CDE4F8881C253D140811191C1A5
:10331000C45BDE4F19821882CC54D14088EE93E012
:10332000A0E0B0E0C25BDE4F88839983AA83BB83B1
:10333000CE54D1408EE091E0C65BDE4F9983888306
:10334000CA54D140CD59DE4F19821882C356D1409C
:10335000CA5ADE4F1882C655D140C45BDE4F888101
:103360009981CC54D140C959DE4F99838883C7567F
:10337000D140C25BDE4F88819981AA81BB81CE5446
:10338000D140C759DE4F88839983AA83BB83C9562E
:10339000D140CE5ADE4F88819981AA81BB81C25526
:1033A000D140C359DE4F88839983AA83BB83CD560E
:1033B000D140AAE4B1E0AC0FBD1F1C96E5E6F1E0F8
:1033C000EC0FFD1F3C9685E691E08C0F9D1F499602
:1033D0002D912193E817F907D9F7CD59DE4FE881F0
:1033E000F981C356D140C258DE4FF983E883CE57E6
:1033F000D140309709F4ECC18581882309F4E8C1F4
:10340000BE016B597E4FC2010E94BB11C2010E94D6
:10341000A31182349D4409F0C9C1BE016B597E4F8E
:10342000C2010E94BB11C2010E947E11BE016B59F4
:103430007E4FC2010E94BB11C2010E947E11BE01DB
:103440006B597E4FC2010E94BB11C2010E947E11C6
:10345000CF57DE4F688379838A839B83C158D140DD
:10346000BE016B597E4FC2010E94BB11C2010E9476
:103470007E11BE016B597E4FC2010E94BB11C20179
:103480000E947E116B01BE016B597E4FC2010E94EA
:10349000BB11C2010E947E114B01BE016B597E4FD0
:1034A000C2010E94BB11C2010E94A311019709F041
:1034B0007DC1BE016B597E4FC2010E94BB11C2018A
:1034C0000E94A311883109F071C1BE016B597E4F72
:1034D000C2010E94BB11C2010E947E11672B682BA2
:1034E000692B09F063C11601840196012F5F3F4FDC
:1034F000C901880F991F820F931FFC01EC7FCB57E6
:10350000DE4FF983E883C558D140CF01092E000C66
:10351000AA0BBB0BC857DE4F88839983AA83BB8352
:10352000C858D14097FC9AC091E0C957DE4F9883A4
:10353000C758D1408091940390919503A1E0CA1A95
:10354000D108C816D90608F01C0180909603909007
:103550009703C80101978815990508F448011CBC18
:10356000940121503109A1014150510970E060E0FE
:1035700090E080E00E946712CF57DE4F488059806C
:103580006A807B80C158D140EE24E394F12CD12C89
:10359000C12CE4EBC058DE4FE883C058D14058013D
:1035A000F1E0AF1AB108C814D9040CF0F4C0C9573F
:1035B000DE4F0881C758D140B301A2010023C9F0F2
:1035C00095012C193D09CB57DE4FA881B981C5580B
:1035D000D1400E949725CF57DE4F088119812A815B
:1035E0003B81C158D140060F171F281F391FB90151
:1035F000A801809192018CBDC258DE4F88819981CB
:10360000CE57D1400097A1F1DC011A960D911D9182
:103610002D913C911D97401751076207730799F14F
:103620000E94850BF4EBC058DE4FF883C058D140A0
:103630002AC0A401BE01635D7E4FC7010E947317BB
:10364000882309F465CECE01835D9E4F0E94C40E8F
:10365000B701C2010E947D10A40127CE00271127C7
:1036600008191909C957DE4F1882C758D14062CFCF
:103670004F3F5F4F6F4F7F4F31F0E4EBC058DE4F4D
:10368000E883C058D14010E000E0021513050CF0AB
:1036900072C0C058DE4F5881C058D140543B20F111
:1036A000FF2051F01CBC6F2D70E04E2DCE018B54CD
:1036B0009F4F0E94E711E12C809192018CBDC2586E
:1036C000DE4F88819981CE57D140009739F044EB85
:1036D00050E0BE016F5F7F4F0E94190DF12CC05862
:1036E000DE4F1882C058D140E1E0F0E0EC0FFD1F42
:1036F000C058DE4F5881C058D140E50FF11D4081C0
:10370000E52FEF5F81E090E08C0F9D1F8E0F911DE4
:10371000FC012081EF2DF0E0EE0FFF1FA5EBB0E0E4
:10372000AC0FBD1FEA0FFB1FA52FAE5F81E090E03D
:103730008C0F9D1F8A0F911DDC015D5FC058DE4F0D
:103740005883C058D1408C9190E0982F88278827C3
:10375000987FA8E02A9F90011124207E3770822B49
:10376000932B469546954695842B918380830F5FD6
:103770001F4FF3948ACFBFEFCB1ADB0AC857DE4F37
:10378000088119812A813B81C858D140400E511EC1
:10379000621E731E08CFFF2049F01CBC6F2D70E025
:1037A0004E2DCE018B549F4F0E94E711C258DE4F21
:1037B00088819981CE57D140009751F00E94C40E64
:1037C000C258DE4F88819981CE57D1400E94482649
:1037D000C557DE4F0FB6F894DEBF0FBECDBFDF91E9
:1037E000CF911F910F91FF90EF90DF90CF90BF90FE
:1037F000AF909F908F907F906F905F904F903F9091
:103800002F9008951F920F920FB60F9211242F93AD
:103810003F938F939F93AF93BF9380918801909133
:103820008901A0918A01B0918B013091870123E039
:10383000230F2D3758F50196A11DB11D2093870147
:103840008093880190938901A0938A01B0938B01A2
:1038500080918C0190918D01A0918E01B0918F018A
:103860000196A11DB11D80938C0190938D01A093B1
:103870008E01B0938F01BF91AF919F918F913F9136
:103880002F910F900FBE0F901F90189526E8230FD1
:103890000296A11DB11DD2CF1F920F920FB60F92AB
:1038A00011242F933F934F935F936F937F938F9345
:1038B0009F93AF93BF93EF93FF9388E993E00E94A8
:1038C0009605FF91EF91BF91AF919F918F917F915D
:1038D0006F915F914F913F912F910F900FBE0F907D
:1038E0001F9018951F920F920FB60F9211242F93CD
:1038F0008F939F93EF93FF93E091A803F091A90317
:103900008081E091AE03F091AF0382FD1BC09081F6
:103910008091B1038F5F8F732091B203821741F0C2
:10392000E091B103F0E0E856FC4F958F8093B1032E
:10393000FF91EF919F918F912F910F900FBE0F905C
:103940001F9018958081F4CFE8E9F3E0138212828A
:1039500088EE93E0A0E0B0E084839583A683B783EC
:1039600080E291E09183808385EC90E09587848765
:1039700084EC90E09787868780EC90E0918B808B39
:1039800081EC90E0938B828B82EC90E0958B848B22
:1039900086EC90E0978B868B118E128E138E148E90
:1039A000E5E3F4E080E580831182E7E3F4E015824B
:1039B00016821186138682E090E0A0E0B0E0848752
:1039C0009587A687B78713A215A614A682E391E070
:1039D00093A782A717A6E6E8F4E08FE0828380E150
:1039E000848387E0838386E0858384EF91E09783F7
:1039F00086838AE090E091838083E0E8F4E013829C
:103A00001282118210820895CF93DF93CDB7DEB773
:103A100066970FB6F894DEBF0FBECDBF789484B51D
:103A2000826084BD84B5816084BD85B5826085BDBA
:103A300085B5816085BD80916E00816080936E0048
:103A4000109281008091810082608093810080913A
:103A500081008160809381008091800081608093EB
:103A600080008091B10084608093B1008091B000AB
:103A700081608093B00080917A00846080937A00A6
:103A800080917A00826080937A0080917A008160D0
:103A900080937A0080917A00806880937A001092F7
:103AA000C10080EF90E0909395038093940380E4AD
:103AB00091E090939703809396038AB1806D8AB9C1
:103AC00084B18F6284B9389A399A3A9A3B9A439A68
:103AD000409A419A60E085E00E94AE0268EC70E096
:103AE00080E090E00E94D90461E085E00E94AE028F
:103AF00084E090E190937F0180937E012EEB33E090
:103B00003A83298389819A81FC0125913491FC01B2
:103B10003296AC014C5F5F4F5A8349836591749133
:103B20002F3F320709F038C190E080E00E94D904AD
:103B300089819A81865A944029F780917F018295E4
:103B40008F7089831A82E981FA81E170FF27FA83F5
:103B5000E983F0937D01E0937C0180EF90E0909306
:103B600095038093940380E491E09093970380936E
:103B7000960380E290E090937B0180937A0181E24A
:103B800090E0909379018093780182E290E09093A5
:103B900077018093760180E590E0909375018093A2
:103BA000740181E590E0909373018093720182E546
:103BB00090E0909371018093700183E590E0909381
:103BC0006F0180936E0160E077E280E690E00E94F2
:103BD0002E1270E060E081E090E00E942E1260E31F
:103BE00070E183E090E00E942E122FE331E04FEE6F
:103BF00050E070E060E090E080E00E946712698130
:103C00007A81626081E690E00E942E1270E060E0AE
:103C10008AE690E00E942E1269817A8181E690E026
:103C20000E942E120E942B160E94400320938004B3
:103C300030938104409382045093830460938404FE
:103C40007093850461E080E10E94FA0261E08FE0F8
:103C50000E94FA0261E086E00E94FA0261E087E0D9
:103C60000E94FA0280918404909185044597833DD7
:103C7000934008F0E4C42090940330909503209181
:103C8000800430918104032E000C440B550B2C5AF8
:103C9000334041095109D1010E944B232DE03DEFF2
:103CA0004FEF5FEF0E942C232B873C874D875E8769
:103CB000CB84DC84609096037090970320918204FB
:103CC00030918304032E000C440B550B265B3340CC
:103CD00041095109D3010E944B2324EF3CEF4FEFE0
:103CE0005FEF0E942C23490138872F8320918501A3
:103CF000309186013E8B2D8B8216930608F0A0C171
:103D0000E0908301F0908401F0928201E0928101C1
:103D1000C216D30608F07BC08FE198EF9093840120
:103D2000809383010FEF1FEFA90170E060E087E04F
:103D3000A82FA29FC001A39F900D11240E947E1561
:103D40008091830190918401E816F90609F478C105
:103D5000FFEFEF16FF0609F00CC10FEF1FEF2D89E3
:103D60003E89A90170E060E090E080E00E941C13B1
:103D70002FEFE21627E0F20609F019C10FEF17E066
:103D80002D893E89A90170E060E0A5E0A49FC001F3
:103D9000A59F900D112452C1439842988BB18F7208
:103DA000932F907D892B8BB985B1807D932F9F7246
:103DB000892B85B94198419A8BB18F72922F907D52
:103DC000892B8BB985B1807D2F72282B25B941981D
:103DD000419A429A8BB18F72972F907D892B8BB924
:103DE00085B1807D972F9F72892B85B94198419A23
:103DF0008BB18F72962F907D892B8BB985B1807D89
:103E00006F72682B65B94198419A439A91CEED89BA
:103E1000FE89EE0FFF1FCE16DF06A8F48FE190E0BB
:103E200090938401809383010FEF1FEF2D893E89CA
:103E3000A90170E060E086E0E82FE29FC001E39F07
:103E4000900D11247BCF8D899E898E0F9F1FC816E0
:103E5000D906A0F48FEF97E09093840180938301BB
:103E60000FEF1FEF2D893E89A90170E060E0F5E0BA
:103E7000F29FC001F39F900D112460CFAD89BE89E0
:103E8000AA0FBB1FAA0FBB1FCA16DB0678F480EE71
:103E900097E090938401809383010FEF1FEF2D89AA
:103EA0003E89A90170E060E0CD0148CF65E04D8911
:103EB0005E89649F9001659F300D1124C216D30660
:103EC00060F420EE3FEF30938401209383010FEFE5
:103ED0001FEF9A0170E060E031CF26E04D895E89E6
:103EE000249FC001259F900D1124C816D90668F49F
:103EF00080E29DEF90938401809383010FEF1FEF89
:103F00009A0170E060E0CF0119CF27E0ED89FE89CA
:103F10002E9FC0012F9F900D1124C816D90670F452
:103F200080E098EF90938401809383010FEF1FEF5F
:103F30009F01AF0170E060E0C90100CF8D899E89CB
:103F4000B3E0880F991FBA95E1F7C816D90608F0B3
:103F5000F7CE8FEF9FEF909384018093830110E061
:103F600000E02D893E89A90170E060E090E080E0EA
:103F7000E5CEE11428EFF20649F400E018EF2D89B0
:103F80003E89A90170E060E0C901F0CE30E2E3169D
:103F90003DEFF306F9F400E21DEF2D893E89A901FA
:103FA00070E060E0C901880F991F0E941C13EFE1C7
:103FB000EE16F10411F50FE110E02D893E89A901FB
:103FC00070E060E086E0F82FF29FC001F39F900D53
:103FD000112434C040EEE4164FEFF406E9F400EE8D
:103FE0001FEF2D893E89A90170E060E0C901880FAB
:103FF000991F820F931F0E941C132FE1E21628EFD6
:10400000F206F1F40FE118EF2D893E89A90170E065
:1040100060E087E0A82FBACEF0EEEF16F7E0FF06DB
:1040200009F0A6CE00EE17E02D893E89A90170E0C7
:1040300060E0C901880F991F880F991F0E941C1307
:10404000F301B897FA8BE98B8401055011092D898A
:104050003E892017310708F033C2C4010596861542
:10406000970508F02DC24F8158854E175F0708F05D
:1040700027C280918301909184019A8389839C8ACD
:104080008B8A2101EB85FC854E1A5F0A9301215032
:104090003109A1014150510970E060E090E080E0F9
:1040A0000E94671229813A814BE050E0B801C201B9
:1040B0000E941515F12CE12C21E030E03A87298788
:1040C00045E050E05C834B8305E010E086EF9FEF16
:1040D000988B8F87ECEFFFEFFE83ED835FEFE51AA0
:1040E000F50A89859A8502969A878987ED81FE81EE
:1040F000E80FF91FFE83ED830E151F050CF4DAC1DE
:104100004801880C991CFFEF8F1A9F0A29813A8178
:10411000A401AB88BC88A01AB10AB501C2018E0DFA
:104120009F1D0E94151529813A81A401B501C20184
:104130008E199F090E9415152B813C81201731078C
:1041400019F1AA24A394B12CAE18BF084F81588549
:10415000A40EB51E29813A8189849A8452E0851A79
:104160009108A401B5018B819C81840D951D0E944D
:10417000151529813A81A401B501C201EB81FC81A9
:104180008E1B9F0B0E941515E016F1060CF098C1CE
:104190002D813E81C80137FD0BC001974F8558899D
:1041A0004E5F5F4F588B4F87240F351F3E832D8303
:1041B0001C830B838C0192CF2AEA31E040E050E06F
:1041C00068E087E394E00E94740682FF2CC010939D
:1041D000420480914204C12CD12C7601823029F412
:1041E000C12CD12CE12C80E4F82E20E030E0A90194
:1041F00067E387E394E00E947406A701960169E2F1
:1042000087E394E00E947406809341048823D1F0F0
:104210000E940C0549815A81641B750B613D7740F2
:1042200020F388E006C214E00E943D06809341041A
:104230001150D1F78A3A11F082E0FBC182E08093FD
:104240004204C7CF809142048230D1F420E030E0B4
:10425000A9016AE387E394E00E947406882311F0C1
:1042600086E0E7C10E943D06807C803C19F463E053
:10427000609342040E943D060E943D060E943D0656
:1042800087E394E00E942B0680E58093350410922A
:10429000360481E00E947A08882309F461C081E62F
:1042A00094E00E94310B882309F4C9C18CB5809336
:1042B00092011CBC70E060E080E098EF0E94A512C3
:1042C0006AE070E080E098EF0E94A5120E94561507
:1042D0008EE491E00E948C18EDEDF5E0FA83E9831D
:1042E00029813A81215031093A832983232B09F40A
:1042F00041C00E9440032093800430938104409386
:10430000820450938304609384047093850461E075
:1043100080E10E94FA0261E08FE00E94FA0261E00F
:1043200086E00E94FA0261E087E00E94FA02809132
:10433000800490918104835C91408F3E910548F404
:104340008091820490918304835C9140873791052A
:1043500070F061E070E080E090E00E94D904C0CF8E
:1043600080E00E947A08882309F469C198CF0E94EE
:104370002B1665C16AE070E080EF9FE00E94A512F5
:104380000E94561585E591E00E948C182DED35E0D0
:104390003A83298349815A81415051095A8349837B
:1043A000452BC1F10E944003209380043093810487
:1043B0004093820450938304609384047093850433
:1043C00061E080E10E94FA0261E08FE00E94FA025F
:1043D00061E086E00E94FA0261E087E00E94FA0252
:1043E0008091800490918104835C91408F3E91057F
:1043F00050F48091820490918304835C91408737CC
:10440000910508F4B4CF61E070E080E090E00E9494
:10441000D904C0CF6AE070E08FE890E00E94A51256
:104420000E9456158CE591E00E948C184DED55E0E8
:104430005A83498389819A8101979A838983892B39
:1044400009F43ECF0E9440032093800430938104FE
:104450004093820450938304609384047093850492
:1044600061E080E10E94FA0261E08FE00E94FA02BE
:1044700061E086E00E94FA0261E087E00E94FA02B1
:104480008091800490918104835C91408F3E9105DE
:1044900050F48091820490918304835C914087372B
:1044A000910508F464CF61E070E080E090E00E9444
:1044B000D904C0CF8B819C818017910709F041CE30
:1044C000C3014E972F81388582179307D0F4C1011D
:1044D0004B855C85841B950BCD9798F05DE3C516E5
:1044E000D10478F093018D899E89281B390B10E047
:1044F00000E0A101BC0190E080E00E941C130E943A
:10450000D515EF81F88529893A892E173F0708F0DC
:1045100096C04B855C85241A350A5CE32516310468
:1045200010F40E942B166CE3C616D10408F087C065
:1045300080916604882321F081E694E00E94C40EF5
:10454000109242041092400410923D0410923C04D8
:1045500085E080933B040E940C057A83698361E0C7
:1045600080913B040E94FA0261E080913B040E942A
:10457000AE021FB7F89480918001811127C0ECEE44
:10458000F4E09491E8EDF4E08491E92FF0E0EE0F8F
:10459000FF1FEA55FB4FA591B4919C91892321F40B
:1045A00061E08AE00E94AE0261E08AE00E94FA02C5
:1045B0008CB580618CBD8CB580648CBD61E08DE074
:1045C0000E94FA0261E08BE00E94FA028091800171
:1045D0008F5F809380011FBFF2E5F0933504109246
:1045E000360480913504909136040E945B061AE0EF
:1045F0008FEF0E9436061150D9F787E394E00E94AE
:104600005E0620E030E0A90160E087E394E00E94CC
:104610007406182F80934104813009F4CDCD0E9497
:104620000C0529813A81621B730B613D774048F389
:1046300081E080933C0487E394E00E942B06E0E055
:10464000F0E0EF2B09F4F0CA0E948205882309F4F8
:10465000EBCA0E940000E8CA052E97FB1EF40094E6
:104660000E94432357FD07D00E94562307FC03D026
:104670004EF40C94432350954095309521953F4F2F
:104680004F4F5F4F089590958095709561957F4F3E
:104690008F4F9F4F08950E947823A59F900DB49F40
:1046A000900DA49F800D911D11240895A1E21A2E52
:1046B000AA1BBB1BFD010DC0AA1FBB1FEE1FFF1FC6
:1046C000A217B307E407F50720F0A21BB30BE40B16
:1046D000F50B661F771F881F991F1A9469F760955D
:1046E0007095809590959B01AC01BD01CF01089517
:1046F000A29FB001B39FC001A39F700D811D112423
:10470000911DB29F700D811D1124911D0895505867
:10471000BB27AA270E949F230C94F0240E94E22426
:1047200038F00E94E92420F039F49F3F19F426F470
:104730000C94DF240EF4E095E7FB0C94D924E92FC8
:104740000E94012558F3BA1762077307840795077B
:1047500020F079F4A6F50C9423250EF4E0950B2EA9
:10476000BA2FA02D0B01B90190010C01CA01A001C3
:104770001124FF27591B99F0593F50F4503E68F11E
:104780001A16F040A22F232F342F4427585FF3CF5F
:10479000469537952795A795F0405395C9F77EF430
:1047A0001F16BA0B620B730B840BBAF09150A1F079
:1047B000FF0FBB1F661F771F881FC2F70EC0BA0FFF
:1047C000621F731F841F48F4879577956795B79587
:1047D000F7959E3F08F0B0CF9395880F08F0992782
:1047E000EE0F9795879508950E9408240C94F02465
:1047F0000E94E92458F00E94E22440F029F45F3F2F
:1048000029F00C94D92451110C9424250C94DF2404
:104810000E94012568F39923B1F3552391F3951B69
:10482000550BBB27AA2762177307840738F09F5FD1
:104830005F4F220F331F441FAA1FA9F335D00E2E3E
:104840003AF0E0E832D091505040E695001CCAF7AB
:104850002BD0FE2F29D0660F771F881FBB1F26176E
:1048600037074807AB07B0E809F0BB0B802DBF0145
:10487000FF2793585F4F3AF09E3F510578F00C9414
:10488000D9240C9424255F3FE4F3983ED4F3869515
:1048900077956795B795F7959F5FC9F7880F911D35
:1048A0009695879597F90895E1E0660F771F881F21
:1048B000BB1F621773078407BA0720F0621B730BD4
:1048C000840BBA0BEE1F88F7E09508950E946D24C3
:1048D0006894B1110C94242508950E94092588F04C
:1048E0009F5798F0B92F9927B751B0F0E1F0660FB4
:1048F000771F881F991F1AF0BA95C9F714C0B130F5
:1049000091F00E942325B1E008950C942325672F90
:10491000782F8827B85F39F0B93FCCF38695779523
:104920006795B395D9F73EF490958095709561950C
:104930007F4F8F4F9F4F0895E89409C097FB3EF437
:1049400090958095709561957F4F8F4F9F4F9923DC
:10495000A9F0F92F96E9BB279395F695879577955A
:104960006795B795F111F8CFFAF4BB0F11F460FF1A
:104970001BC06F5F7F4F8F4F9F4F16C0882311F072
:1049800096E911C0772321F09EE8872F762F05C086
:10499000662371F096E8862F70E060E02AF09A9521
:1049A000660F771F881FDAF7880F9695879597F916
:1049B000089597F99F6780E870E060E008959FEFA1
:1049C00080EC089500240A941616170618060906A6
:1049D000089500240A941216130614060506089575
:1049E000092E0394000C11F4882352F0BB0F40F4FD
:1049F000BF2B11F460FF04C06F5F7F4F8F4F9F4F3D
:104A0000089557FD9058440F551F59F05F3F71F0BE
:104A10004795880F97FB991F61F09F3F79F0879525
:104A20000895121613061406551FF2CF4695F1DFAE
:104A300008C0161617061806991FF1CF869571053E
:104A4000610508940895E894BB2766277727CB0172
:104A500097F908950E943D250C94F0240E94E224C9
:104A600038F00E94E92420F0952311F00C94D92409
:104A70000C94DF2411240C9424250E94012570F34A
:104A8000959FC1F3950F50E0551F629FF001729FF3
:104A9000BB27F00DB11D639FAA27F00DB11DAA1F02
:104AA000649F6627B00DA11D661F829F2227B00D4F
:104AB000A11D621F739FB00DA11D621F839FA00DDA
:104AC000611D221F749F3327A00D611D231F849F2A
:104AD000600D211D822F762F6A2F11249F57504081
:104AE0009AF0F1F088234AF0EE0FFF1FBB1F661FFC
:104AF000771F881F91505040A9F79E3F510580F0C5
:104B00000C94D9240C9424255F3FE4F3983ED4F30D
:104B1000869577956795B795F795E7959F5FC1F768
:104B2000FE2B880F911D9695879597F908950E9401
:104B30007823332312F48A1B9B0B0C94A1250E942B
:104B40007823B7FF0895821B930B0895EE0FFF1F84
:104B50000590F491E02D09940F931F93CF93DF9369
:104B60008230910510F482E090E0E0919004F091A1
:104B7000910430E020E0B0E0A0E0309799F42115F6
:104B8000310509F44AC0281B390B24303105D8F50A
:104B90008A819B816115710589F1FB019383828371
:104BA000FE0111C0408151810281138148175907CC
:104BB000E0F04817590799F4109761F012960C939A
:104BC000129713961C933296CF01DF91CF911F91CC
:104BD0000F9108950093900410939104F4CF211540
:104BE000310551F04217530738F0A901DB019A0152
:104BF000BD01DF01F801C1CFEF01F9CF909391041E
:104C000080939004CDCFFE01E20FF31F8193919327
:104C10002250310939832883D7CF20918E043091D7
:104C20008F04232B41F4209106013091070130932A
:104C30008F0420938E0420910401309105012115E9
:104C4000310541F42DB73EB740910801509109015B
:104C5000241B350BE0918E04F0918F04E217F307CB
:104C6000A0F42E1B3F0B2817390778F0AC014E5FDC
:104C70005F4F2417350748F04E0F5F1F50938F0486
:104C800040938E04819391939FCFF0E0E0E09CCF1E
:104C9000CF93DF930097E9F0FC01329713821282E1
:104CA000A0919004B0919104ED0130E020E01097C4
:104CB000A1F420813181820F931F20918E043091C5
:104CC0008F042817390709F061C0F0938F04E0932F
:104CD0008E04DF91CF910895EA01CE17DF07E8F542
:104CE0004A815B819E0141155105B1F7E901FB83C2
:104CF000EA8349915991C40FD51FEC17FD0761F460
:104D0000808191810296840F951FE90199838883A0
:104D1000828193819B838A83F0E0E0E012968D91FB
:104D20009C9113970097B9F52D913C911197CD0166
:104D30000296820F931F20918E0430918F042817C2
:104D4000390739F6309751F510929104109290047A
:104D5000B0938F04A0938E04BCCFD383C2834081D1
:104D60005181840F951FC817D90761F44E5F5F4FBB
:104D700088819981480F591F518340838A819B8183
:104D8000938382832115310509F0B0CFF09391040C
:104D9000E09390049ECFFD01DC01C0CF138212820C
:104DA000D7CF81E090E0F8940C94FD26FB01DC0164
:104DB00004C08D910190801921F441505040C8F7F2
:104DC000881B990B0895FC018191861721F0882397
:104DD000D9F7992708953197CF010895FB01DC0198
:104DE0004150504048F001900D920020C9F701C099
:0E4DF0001D9241505040E0F70895F894FFCF17
:104DFE00FFFFFFFF0000920480000000000023115F
:104E0E000611F610CD10D61050115A1100000000E8
:104E1E00B805180545050506760554056805000014
:104E2E0000006C101805660E1317456E6400434C97
:104E3E0045415200426D700052756E002F003031A8
:104E4E002E626D700030322E626D700030332E6225
:044E5E006D70000073
:00000001FF
