S014000041746D656761385F766F6C742E7372656365
S113000012C02CC02BC02AC029C028C027C026C0BB
S113001025C024C023C022C021C020C020C01EC0CF
S11300201DC01CC01BC011241FBECFE5D4E0DEBF21
S1130030CDBF10E0A0E6B0E0E0E3F3E002C005903D
S11300400D92AA36B107D9F720E0AAE6B0E001C0C4
S11300501D92AF36B207E1F75AD068C1D1CF1F92D3
S11300600F920FB60F9211242F933F938F939F9368
S1130070AF93BF9380916E008823E1F080916E006E
S1130080815080936E0024B135B180916A009091C3
S11300906B00A0916C00B0916D00820F931FA11DA5
S11300A0B11D80936A0090936B00A0936C00B09391
S11300B06D00369ABF91AF919F918F913F912F918F
S11300C00F900FBE0F901F9018953E9A399A329A4E
S11300D0379A339A089588EC80936E00369A08957F
S11300E090916E0081E0911180E0089560916A0022
S11300F070916B0080916C0090916D0010926A0079
S113010010926B0010926C0010926D000895DDDF68
S11301107894C0E0D2E001E00F2EF8ECCF2ED12C81
S1130120E12CF12CF02D10E0C13039F018F0C23080
S113013049F0FACFD0DFC02FF7CFD2DF8823A1F365
S1130140CD2FF2CFD3DFA7019601C2D0C901880F0A
S1130150991F820F931F6D2F6ED0C12FE5CFBB9ACD
S1130160BC9AC39AC49A00C000C00000C498C39843
S113017000C000C000000895BB9ABC9AC398C498FC
S113018000C000C00000C39AC49A00C000C00000B0
S1130190089540E050E061E070E090E0C39800C052
S11301A000C000009B01042E02C0220F331F0A94DA
S11301B0E2F728233923042E02C0359527950A94A3
S11301C0E2F7222311F0C49A01C0C49800C000C011
S11301D00000C39A00C000C000004F5F5F4F48306A
S11301E05105E1F6C39800C000C00000C39A00C0E6
S11301F000C0000008950F931F93CF93DF93082F3F
S1130200162FD42FC22FABDF8FE8C3DFA8DF80E423
S1130210C0DFB2DFA4DF80ECBCDF802FBADF812F28
S1130220B8DF8D2FB6DF8C2FB4DFA6DFDF91CF913F
S11302301F910F9108950F931F93CF93DF9300D0D5
S113024000D0CDB7DEB7FC01562F8E010F5F1F4FD4
S113025040E09F01ADECBCEC5DD0969587959695FA
S11302608795969587959C01220F331F880F991FB8
S1130270880F991F880F991F820F931FDF01A81BF6
S1130280B90BA05ABF4F8C91D8018C93541302C060
S113029080588C939F01ADECBCEC3CD0FC01F695EE
S11302A0E795F695E795F695E7954F5F0F5F1F4F36
S11302B0443079F629814A816B818C819CDF0F90CF
S11302C00F900F900F90DF91CF911F910F91089590
S11302D0A1E21A2EAA1BBB1BFD010DC0AA1FBB1F46
S11302E0EE1FFF1FA217B307E407F50720F0A21BB8
S11302F0B30BE40BF50B661F771F881F991F1A9425
S113030069F760957095809590959B01AC01BD014E
S1130310CF010895A29FB001B39FC001A39F01D054
S1130320B29F700D811D1124911D0895F894FFCF83
S10D03303F065B4F666D7D077F6F8B
S903015E9D
