:020000020000FC
:1000000064C15465737420493243207363616E6523
:1000100072206F6E20415474696E79313034200043
:100020000F931F932F933F933FB7F89423E01DE066
:1000300000E4015010402040E0F73FBF3F912F9176
:100040001F910F910895F8940F931F932F933F934F
:100050003FB7F89421E016E800EA01501040204034
:10006000E0F73FBF3F912F911F910F9108950F939C
:100070001F932F933F933FB7F89420E01EE400E2D4
:10008000015010402040E0F73FBF3F912F911F915A
:100090000F9108950F931F932F933F933FB7F894B9
:1000A00020E017E000ED015010402040E0F73FBF96
:1000B0003F912F911F910F9108950F93FAB9E9B9CC
:1000C00008E10DB902E00EB90F9108951F931EB11A
:1000D00015FFFDCF08B91F9108951F931EB117FF9B
:1000E000FDCF08B11F9108950591003011F0EEDFAA
:1000F000FBCF08951F9312E01EBD11E01DBD10E05F
:1001000017BD1AE016BD1F9108953F9330E039BD29
:1001100038BD38B53A30E8F33F9108950C9AF5DFD1
:100120000D9A08950C9AF1DF0D98EFDF0C98EDDF32
:10013000089512E01EBD11E01DBD1AE016BD18E0C5
:100140008894001F08F410F00C9A02C00C9800C0AC
:10015000DCDF0D98DADF0D9A1A9591F70C98D5DF50
:100160000D98D3DF10B110710D9A08951AE016BDE5
:1001700008950F931F932F933F934F93442738E095
:100180002227CCDF022F000FD4DF141739F0CADF8B
:100190002395203808F4F5CF22270FC0C3DF32D0D3
:1001A0008894221F08F403C000E390DF02C001E33B
:1001B0008DDF3A95303011F0F3CF4DD067D04F91AD
:1001C0003F912F911F910F9108950F9308E47EDFC7
:1001D00005E67CDF0CE67ADF0CE678DF0FE676DFFB
:1001E00000E274DF07E572DF0FE670DF02E76EDF23
:1001F0000CE66CDF04E66ADF01E268DF0AE066DF36
:100200000F9108950F930AE061DF01E45FDF04E6D8
:100210005DDF04E65BDF02E759DF05E657DF03E752
:1002200055DF03E753DF00E251DF04E64FDF05E669
:100230004DDF06E74BDF09E649DF03E647DF05E66A
:1002400045DF0AE343DF00E241DF00E33FDF02E690
:100250003DDF0F9108950F930AE038DF0EE436DF9B
:100260000FE634DF00E232DF04E630DF05E62EDFA2
:1002700006E72CDF09E62ADF03E628DF05E626DFAE
:1002800003E724DF01E222DF0F9108950F930AE0D4
:100290001DDF0AE01BDF03E519DF05E617DF01E6D6
:1002A00015DF02E713DF03E611DF08E60FDF00E2E8
:1002B0000DDF05E60BDF0EE609DF04E607DF01E2EE
:1002C00005DF0AE003DF0F9108950D9AECE0F0E0FE
:1002D000F4DE7BDF0FDF4DDF159AB5DE1598B3DE58
:0202E000FBCF52
:00000001FF
