:1000000012C019C018C017C016C015C014C013C044
:1000100012C011C010C00FC00EC00DC00CC00BC06C
:100020000AC009C008C011241FBECFE5D4E0DEBF5E
:10003000CDBF09D035C0E4CFA89581B5886181BD19
:100040008FE081BD089587B3816287BB98B381E05B
:10005000982798BB2FE936E891E021503040904036
:10006000E1F700C0000098B3892788BBE5DF90E284
:1000700088B3892788BB2FE33DE083E021503040DF
:100080008040E1F700C00000A8952FED33E984E03F
:10009000215030408040E1F700C00000A895E8CF33
:0400A000F894FFCF02
:00000001FF
