:020000040800F2
:1000000068060020650100086D0100086F01000806
:1000100000000000000000000000000000000000E0
:100020000000000000000000000000007101000856
:1000300000000000000000007301000875010008C6
:100040007701000800000000770100087701000830
:1000500077010008770100087701000877010008A0
:100060000000000077010008770100087701000810
:100070007701000877010008770100080000000000
:100080007701000800000000000000007701000870
:1000900000000000770100087701000877010008E0
:1000A0007701000877010008770100087701000850
:1000B00077010008000000000000000000000000C0
:1000C00000F002F800F03EF80CA030C80838241800
:1000D0002D18671EA246AB4654465D46AC4201D180
:1000E00000F030F87E460F3EB6460FCC0126334274
:1000F00000D0FB1A3343A246AB461847B8010000B4
:10010000D8010000103A02D378C878C1FAD8520753
:1001100001D330C830C101D504680C6070470000BD
:100120000023002400250026103A01D378C1FBD813
:10013000520700D330C100D50B6070471FB51FBDFB
:1001400010B510BD00F02DF81146FFF7F7FF00F0D5
:100150008DF800F045F803B4FFF7F2FF03BC00F0A0
:100160004BF800000748804707480047FEE7FEE7D6
:10017000FEE7FEE7FEE7FEE704480549054A064BB1
:100180007047000041020008C1000008680000201C
:10019000680600206802002068020020704770474F
:1001A0007047754600F024F8AE4605006946534690
:1001B000C008C000854618B020B5FFF7DDFF60BC61
:1001C000B64600260027C0C5C0C5C0C5C0C5C0C54D
:1001D000C0C5C0C5C0C5403D490849008D467047EF
:1001E00010B50446C046C0462046FFF7B4FF10BD18
:1001F000004870470800002001491820ABBEFEE708
:1002000026000200704700000949086808221043D0
:100210000860084908681022104308600649086809
:100220000860064908683022104308607047C046DD
:100230003410024000080050040800500808005024
:10024000704782B001A9088000200090FFE7009865
:1002500001A909880903884206D2FFE700BFFFE72A
:100260000098401C0090F2E702B0704780B584B05F
:1002700000200390FFF7C8FFFFE70C4800900088BC
:10028000FFF7DFFF00980A4A0292116801230193E9
:100290005B03194311600088FFF7D3FF019A0299AD
:1002A0000868520710430860E7E7C04600000020D6
:1002B00018080050D40200080000002004000000CC
:1002C00004010008D80200080800002060060000B1
:0802D00020010008F401000008
:040000050800016589
:00000001FF
