:020000040800F2
:10000000980A002089010008910100089301000866
:100010009501000897010008990100080000000000
:100020000000000000000000000000009B0100082C
:100030009D010008000000009F010008B5050008B0
:10004000A3010008A3010008A3010008A301000800
:10005000A3010008A3010008A3010008A3010008F0
:10006000A3010008A3010008A3010008A3010008E0
:10007000A3010008A3010008A3010008A3010008D0
:10008000A3010008A3010008A3010008A3010008C0
:10009000A3010008A3010008A3010008A3010008B0
:1000A000A3010008A3010008A3010008A3010008A0
:1000B000A3010008A3010008A3010008A301000890
:1000C000A3010008A3010008A3010008A301000880
:1000D000A3010008A3010008A3010008A301000870
:1000E000A3010008A3010008A301000800F002F822
:1000F00000F03AF80AA090E8000C82448344AAF188
:100100000107DA4501D100F02FF8AFF2090EBAE885
:100110000F0013F0010F18BFFB1A43F0010318473B
:10012000C4090000E4090000103A24BF78C878C16F
:10013000FAD8520724BF30C830C144BF04680C60ED
:10014000704700000023002400250026103A28BF35
:1001500078C1FBD8520728BF30C148BF0B60704739
:100160001FB51FBD10B510BD00F031F81146FFF7E7
:10017000F7FF00F083FB00F04FF803B4FFF7F2FF46
:1001800003BC00F057F800000948804709480047C1
:10019000FEE7FEE7FEE7FEE7FEE7FEE7FEE7FEE737
:1001A000FEE7FEE704480549054A064B7047000094
:1001B00055070008ED00000898040020980A002068
:1001C00098060020980600207047704770477546D3
:1001D00000F02CF8AE4605006946534620F00700B3
:1001E000854618B020B5FFF7DDFFBDE820404FF091
:1001F00000064FF000074FF000084FF0000BAC4630
:10020000ACE8C009ACE8C009ACE8C009ACE8C0097A
:1002100021F007018D46704710B50446AFF300800A
:100220002046BDE81040FFF7A8BF00000048704717
:100230002800002001491820ABBEFEE7260002007E
:100240007047000081B00090009840F28801C2F22F
:1002500000010860FFE740F28800C2F20000006879
:1002600008B1FFE7F7E701B07047000041F218015D
:10027000C4F20201086840F01000086041F2040274
:10028000C4F20102106820F440001060106840F4CD
:1002900040101060086840F00800086040F6004117
:1002A000C4F20101086820F440600860086840F466
:1002B000407008607047000041F21801C4F202016A
:1002C000086840F001000860086840F48050086049
:1002D000086840F00400086040F60001C4F2010123
:1002E0000868022262F309200860086820F4406070
:1002F0000860086862F30D300860086820F4404028
:100300000860086862F311400860086820F4402023
:100310000860086840F440100860086862F397506D
:100320000860086820F040700860086862F39B600D
:10033000086040F60C03C4F20103186840F0400066
:100340001860086840F040500860086862F39F70C9
:10035000086043F20001C4F20101088840F0200067
:1003600020F018000880088840F400700880088891
:1003700040F480700880088840F0040008800888F5
:1003800040F040000880704786B004900391ADF8BB
:100390000A20019304980089000600286BD4FFE727
:1003A00003980078049988810120ADF80200FFE7E6
:1003B000BDF80200BDF80A10884226DAFFE701986E
:1003C00040F29001C2F200010860FFE70498008942
:1003D000800700280CD4FFE740F29000C2F2000032
:1003E000006820B9FFE700208DF8170047E0EDE72F
:1003F0000398BDF80210405C04998881FFE7BDF8BE
:1004000002000130ADF80200D2E7019840F29001FD
:10041000C2F200010860FFE7049800898007002805
:100420000CD4FFE740F29000C2F20000006820B94F
:10043000FFE700208DF8170021E0EDE7019840F27A
:100440009001C2F200010860FFE7049800890006ED
:1004500000280CD5FFE740F29000C2F200000068CF
:1004600020B9FFE700208DF8170008E0EDE7012034
:100470008DF8170003E000208DF81700FFE79DF8C6
:10048000170006B07047000080B500F001F880BD8D
:1004900084B000200390029041F20001C4F20201F6
:1004A000086840F480300860FFE741F20000C4F2C1
:1004B0000200006800F400300290039801300390BD
:1004C000FFE702990020019039B9FFE70398B0F5E2
:1004D000A06018BF01200190FFE70198C007002825
:1004E000E3D1FFE741F20000C4F20200006880039C
:1004F000002803D5FFE70120029002E000200290CF
:10050000FFE70298012851D1FFE742F20001C4F24F
:100510000201086840F010000860086820F0070039
:100520000860086840F00200086041F20401C4F26B
:10053000020100910868086008680860086840F4D3
:1005400080600860086820F47C100860086840F447
:10055000E810086041F20001C4F20201086840F0AE
:1005600080700860FFE741F20000C4F202000068FA
:100570008001002801D4FFE7F5E741F20401C4F24D
:100580000201086820F003000860086840F00200DB
:100590000860FFE741F20400C4F20200006800F0C6
:1005A0000C00082801D0FFE7F4E700E0FFE704B003
:1005B0007047000040F28C01C2F20001086801306F
:1005C000086040F28800C2F20000006840B1FFE716
:1005D00040F28801C2F20001086801380860FFE7B4
:1005E00040F29000C2F20000006840B1FFE740F224
:1005F0009001C2F20001086801380860FFE7704707
:100600004EF21001CEF20001086820F001000860EF
:10061000086840F002000860086840F004000860C4
:100620004EF21402CEF20002106841F63F13C0F2FF
:100630000103184310604EF21802CEF20002106857
:1006400018431060086840F001000860704700001F
:1006500081B041F20001C4F20201086840F00100DB
:100660000860FFE741F20000C4F202000068800762
:10067000002801D4FFE7F5E741F20001C4F20201CE
:10068000086840F480300860FFE741F20000C4F2DF
:10069000020000688003002801D4FFE7F5E741F27B
:1006A0000001C4F20201086820F480200860086894
:1006B00040F40020086041F20402C4F202020092F9
:1006C000106840F002001060106840F008001060F0
:1006D0001068106042F20003C4F20203186840F090
:1006E00002001860186840F010001860186840F0A8
:1006F00020001860106840F480601060106810607E
:10070000106840F400401060106840F480301060C1
:10071000106820F400301060106840F4E0101060A1
:10072000106820F480001060106840F0E0601060F5
:10073000086840F080700860FFE741F20000C4F2F2
:10074000020000688001002801D4FFE7F5E701B04E
:100750007047000080B541F20002C4F20202106846
:1007600040F00100106041F20401C4F20201086887
:100770000023CFF6FF031840086010684FF6FF73A0
:10078000CFF6F66318401060106820F480201060E7
:10079000086820F4FE00086041F20801C4F202017A
:1007A0004FF41F000860FFF76FFE4EF60851CEF2BF
:1007B00000014FF00060086080BD000080B584B08B
:1007C0008DF80F000291ADF806209DF80F0040F261
:1007D0009401C2F200010978884208D1FFE740F68F
:1007E0001001C4F201014FF40020086006E040F659
:1007F0001001C4F2010108200860FFE740F6100173
:10080000C4F2010100914FF4801008600299BDF814
:10081000062043F20000C4F201006423FFF7B4FD98
:1008200000991020086004B080BD000080B582B03F
:1008300040F61001C4F2010100911020086004206C
:10084000019008600120FFF7FDFC00994FF4802023
:1008500008600A20FFF7F6FC00990198086040F252
:100860009400C2F20000007840F21301C2F20001CD
:100870001322FFF7A3FF02B080BD000080B584B053
:1008800000200390FFF7BCFEFFF7E2FEFFF7EEFC4F
:10089000FFF712FDFFF7CAFF00F0BEF8FFE741F2D5
:1008A0001001C4F201010191086840F40050086091
:1008B0004FF4FA700290FFF7C5FC019A0298116894
:1008C00041F000511160FFF7BDFCE8E780B582B050
:1008D0000020ADF80600FFE7BDF80600B0F5806F18
:1008E0000FDAFFE7BDF8062040F29501C2F20001E1
:1008F00000208854FFE7BDF806000130ADF806007F
:10090000EAE700F06DF802B080BD000080B582B06B
:100910000020ADF80600FFE7BDF80600FF280FDC59
:10092000FFE7BDF8062040F29501C2F20001002069
:100930008854FFE7BDF806000130ADF80600EBE78C
:1009400040F29400C2F20000007840F20701C2F2C7
:1009500000010622FFF732FF40F20000C2F2000061
:10096000007840F29501C2F200014FF48072FFF767
:1009700025FF02B080BD000080B582B00020ADF838
:100980000600FFE7BDF806003F280FDCFFE7BDF8D3
:10099000062040F29501C2F20001FF208854FFE7D3
:1009A000BDF806000130ADF80600EBE740F2940018
:1009B000C2F20000007840F20D01C2F200010622EE
:1009C000FFF7FCFE40F20000C2F20000007840F2A7
:1009D0009501C2F200014022FFF7F0FE02B080BD97
:1009E00080B540F29400C2F20000007840F20101AC
:1009F000C2F200010622FFF7E1FE40F20000C2F25F
:100A00000000007840F29501C2F200014FF48062CC
:100A1000FFF7D4FE80BD000080B584B0FFF756FF1D
:100A20004FF47A70FFF70EFCFF208DF80F000020C6
:100A3000ADF80C00FFE7BDF80C00B0F5806F1CDAD4
:100A4000FFE79DF80F00BDF80C2040F29501C2F2BF
:100A5000000188549DF80F0020B1FFE700208DF8B9
:100A60000F0003E0FF208DF80F00FFE7FFE7BDF860
:100A70000C000130ADF80C00DDE7FFF7B1FF4FF4DB
:100A80007A70FFF7DFFBFFF721FF6420FFF7DAFB47
:100A90000020ADF80A00FFE7BDF80A00B0F5806F4E
:100AA0000FDAFFE7BDF80A2040F29501C2F200011B
:100AB000FF208854FFE7BDF80A000130ADF80A00B6
:100AC000EAE7FFF78DFF4FF47A700190FFF7BAFB6A
:100AD000FFF71CFF0198FFF7B5FBFFF74DFF04B0D0
:100AE00080BD0000040B000800000020280000006A
:100AF000280100082C0B000828000020700A0000C4
:100B0000440100080121007F220007211F5F22020B
:100B100005212F4F220304AED5808D142001A1C8DA
:0C0B2000817FDB40A6AFDA12A83F000086
:040000050800018965
:00000001FF
