:100000000C943C000C944E000C944E000C944E004A
:100010000C944E000C944E000C944E000C944E0028
:100020000C944E000C944E000C944E000C944E0018
:100030000C944E000C944E000C944E000C944E0008
:100040000C94A8000C944E000C944E000C944E009E
:100050000C944E000C944E000C944E000C944E00E8
:100060000C944E000C944E000C9400000C94000074
:100070000C9400000C94000011241FBECFEFD8E0B8
:10008000DEBFCDBF21E0A0E0B1E001C01D92A930EC
:10009000B207E1F70E94EE000C947E010C94000080
:1000A00000E204B985B908953FB7F894809105013D
:1000B00090910601A0910701B091080126B5A89B77
:1000C00005C02F3F19F00196A11DB11D3FBFBA2FEA
:1000D000A92F982F8827BC01CD01620F711D811DAA
:1000E000911D660F771F881F991F08958F929F9209
:1000F000AF92BF92CF92DF92EF92FF924B015C01E1
:100100000E9454006B017C010E9454006C197D090F
:100110008E099F09683E734081059105A8F321E08F
:10012000821A9108A108B10888EEC80E83E0D81E93
:10013000E11CF11C81149104A104B10429F7FF9082
:10014000EF90DF90CF90BF90AF909F908F900895E9
:100150001F920F920FB60F9211242F933F938F93FC
:100160009F93AF93BF938091010190910201A09161
:100170000301B09104013091000120E4230F2D37D9
:1001800028F023EC230F0196A11DB11D209300013F
:100190008093010190930201A0930301B0930401A5
:1001A0008091050190910601A0910701B09108018D
:1001B0000196A11DB11D8093050190930601A093A6
:1001C0000701B0930801BF91AF919F918F913F912B
:1001D0002F910F900FBE0F901F9018958091F200F5
:1001E00080618EBB80E88093F2009EB39093F20012
:1001F0008093610091E0909361009091F2009F796B
:100200009EBB8093F2009EB39093F2009091F20017
:100210009B7F9EBB8093F2009EB39093F2008093ED
:10022000610010926100789484B5826084BD84B5C9
:10023000816084BD85B5826085BD85B5816085BDE1
:1002400080916E00816080936E0010928100809199
:100250008100826080938100809181008160809321
:100260008100809180008160809380008091B10046
:1002700084608093B1008091B00081608093B00071
:1002800080919100826080939100809191008160C3
:100290008093910080919000816080939000809184
:1002A0007A00846080937A0080917A008D7F8093B9
:1002B0007A0080917A008E7F80937A0080917A0014
:1002C000806880937A001092C100C0E0D0E080E0A6
:1002D0000E94500062EC71E080E090E00E947600A5
:1002E00080E20E94500062E370E080E090E00E94B3
:1002F0007600209761F30E940000E9CFF894FFCFC9
:00000001FF
